{
  "_format": "hh-sol-artifact-1",
  "contractName": "ArtisanMarketplace",
  "sourceName": "contracts/ArtisanMarketplace.sol",
  "abi": [
    {
      "inputs": [],
      "stateMutability": "nonpayable",
      "type": "constructor"
    },
    {
      "inputs": [
        {
          "internalType": "address",
          "name": "sender",
          "type": "address"
        },
        {
          "internalType": "uint256",
          "name": "tokenId",
          "type": "uint256"
        },
        {
          "internalType": "address",
          "name": "owner",
          "type": "address"
        }
      ],
      "name": "ERC721IncorrectOwner",
      "type": "error"
    },
    {
      "inputs": [
        {
          "internalType": "address",
          "name": "operator",
          "type": "address"
        },
        {
          "internalType": "uint256",
          "name": "tokenId",
          "type": "uint256"
        }
      ],
      "name": "ERC721InsufficientApproval",
      "type": "error"
    },
    {
      "inputs": [
        {
          "internalType": "address",
          "name": "approver",
          "type": "address"
        }
      ],
      "name": "ERC721InvalidApprover",
      "type": "error"
    },
    {
      "inputs": [
        {
          "internalType": "address",
          "name": "operator",
          "type": "address"
        }
      ],
      "name": "ERC721InvalidOperator",
      "type": "error"
    },
    {
      "inputs": [
        {
          "internalType": "address",
          "name": "owner",
          "type": "address"
        }
      ],
      "name": "ERC721InvalidOwner",
      "type": "error"
    },
    {
      "inputs": [
        {
          "internalType": "address",
          "name": "receiver",
          "type": "address"
        }
      ],
      "name": "ERC721InvalidReceiver",
      "type": "error"
    },
    {
      "inputs": [
        {
          "internalType": "address",
          "name": "sender",
          "type": "address"
        }
      ],
      "name": "ERC721InvalidSender",
      "type": "error"
    },
    {
      "inputs": [
        {
          "internalType": "uint256",
          "name": "tokenId",
          "type": "uint256"
        }
      ],
      "name": "ERC721NonexistentToken",
      "type": "error"
    },
    {
      "inputs": [
        {
          "internalType": "address",
          "name": "owner",
          "type": "address"
        }
      ],
      "name": "OwnableInvalidOwner",
      "type": "error"
    },
    {
      "inputs": [
        {
          "internalType": "address",
          "name": "account",
          "type": "address"
        }
      ],
      "name": "OwnableUnauthorizedAccount",
      "type": "error"
    },
    {
      "anonymous": false,
      "inputs": [
        {
          "indexed": true,
          "internalType": "address",
          "name": "owner",
          "type": "address"
        },
        {
          "indexed": true,
          "internalType": "address",
          "name": "approved",
          "type": "address"
        },
        {
          "indexed": true,
          "internalType": "uint256",
          "name": "tokenId",
          "type": "uint256"
        }
      ],
      "name": "Approval",
      "type": "event"
    },
    {
      "anonymous": false,
      "inputs": [
        {
          "indexed": true,
          "internalType": "address",
          "name": "owner",
          "type": "address"
        },
        {
          "indexed": true,
          "internalType": "address",
          "name": "operator",
          "type": "address"
        },
        {
          "indexed": false,
          "internalType": "bool",
          "name": "approved",
          "type": "bool"
        }
      ],
      "name": "ApprovalForAll",
      "type": "event"
    },
    {
      "anonymous": false,
      "inputs": [
        {
          "indexed": true,
          "internalType": "address",
          "name": "artisanAddress",
          "type": "address"
        },
        {
          "indexed": false,
          "internalType": "string",
          "name": "id",
          "type": "string"
        },
        {
          "indexed": false,
          "internalType": "string",
          "name": "name",
          "type": "string"
        }
      ],
      "name": "ArtisanRegistered",
      "type": "event"
    },
    {
      "anonymous": false,
      "inputs": [
        {
          "indexed": false,
          "internalType": "uint256",
          "name": "_fromTokenId",
          "type": "uint256"
        },
        {
          "indexed": false,
          "internalType": "uint256",
          "name": "_toTokenId",
          "type": "uint256"
        }
      ],
      "name": "BatchMetadataUpdate",
      "type": "event"
    },
    {
      "anonymous": false,
      "inputs": [
        {
          "indexed": false,
          "internalType": "uint256",
          "name": "_tokenId",
          "type": "uint256"
        }
      ],
      "name": "MetadataUpdate",
      "type": "event"
    },
    {
      "anonymous": false,
      "inputs": [
        {
          "indexed": true,
          "internalType": "address",
          "name": "previousOwner",
          "type": "address"
        },
        {
          "indexed": true,
          "internalType": "address",
          "name": "newOwner",
          "type": "address"
        }
      ],
      "name": "OwnershipTransferred",
      "type": "event"
    },
    {
      "anonymous": false,
      "inputs": [
        {
          "indexed": true,
          "internalType": "uint256",
          "name": "tokenId",
          "type": "uint256"
        },
        {
          "indexed": false,
          "internalType": "string",
          "name": "name",
          "type": "string"
        },
        {
          "indexed": false,
          "internalType": "address",
          "name": "artisanAddress",
          "type": "address"
        },
        {
          "indexed": false,
          "internalType": "uint256",
          "name": "price",
          "type": "uint256"
        }
      ],
      "name": "ProductCreated",
      "type": "event"
    },
    {
      "anonymous": false,
      "inputs": [
        {
          "indexed": true,
          "internalType": "uint256",
          "name": "tokenId",
          "type": "uint256"
        },
        {
          "indexed": true,
          "internalType": "address",
          "name": "seller",
          "type": "address"
        },
        {
          "indexed": true,
          "internalType": "address",
          "name": "buyer",
          "type": "address"
        },
        {
          "indexed": false,
          "internalType": "uint256",
          "name": "price",
          "type": "uint256"
        }
      ],
      "name": "ProductSold",
      "type": "event"
    },
    {
      "anonymous": false,
      "inputs": [
        {
          "indexed": true,
          "internalType": "uint256",
          "name": "tokenId",
          "type": "uint256"
        },
        {
          "indexed": false,
          "internalType": "string",
          "name": "eventType",
          "type": "string"
        },
        {
          "indexed": false,
          "internalType": "address",
          "name": "actorAddress",
          "type": "address"
        }
      ],
      "name": "ProvenanceAdded",
      "type": "event"
    },
    {
      "anonymous": false,
      "inputs": [
        {
          "indexed": true,
          "internalType": "address",
          "name": "from",
          "type": "address"
        },
        {
          "indexed": true,
          "internalType": "address",
          "name": "to",
          "type": "address"
        },
        {
          "indexed": true,
          "internalType": "uint256",
          "name": "tokenId",
          "type": "uint256"
        }
      ],
      "name": "Transfer",
      "type": "event"
    },
    {
      "inputs": [
        {
          "internalType": "address",
          "name": "to",
          "type": "address"
        },
        {
          "internalType": "uint256",
          "name": "tokenId",
          "type": "uint256"
        }
      ],
      "name": "approve",
      "outputs": [],
      "stateMutability": "nonpayable",
      "type": "function"
    },
    {
      "inputs": [
        {
          "internalType": "string",
          "name": "",
          "type": "string"
        }
      ],
      "name": "artisanIdToAddress",
      "outputs": [
        {
          "internalType": "address",
          "name": "",
          "type": "address"
        }
      ],
      "stateMutability": "view",
      "type": "function"
    },
    {
      "inputs": [
        {
          "internalType": "address",
          "name": "",
          "type": "address"
        }
      ],
      "name": "artisans",
      "outputs": [
        {
          "internalType": "string",
          "name": "id",
          "type": "string"
        },
        {
          "internalType": "string",
          "name": "name",
          "type": "string"
        },
        {
          "internalType": "string",
          "name": "bio",
          "type": "string"
        },
        {
          "internalType": "string",
          "name": "profileImage",
          "type": "string"
        },
        {
          "internalType": "bool",
          "name": "isRegistered",
          "type": "bool"
        }
      ],
      "stateMutability": "view",
      "type": "function"
    },
    {
      "inputs": [
        {
          "internalType": "address",
          "name": "owner",
          "type": "address"
        }
      ],
      "name": "balanceOf",
      "outputs": [
        {
          "internalType": "uint256",
          "name": "",
          "type": "uint256"
        }
      ],
      "stateMutability": "view",
      "type": "function"
    },
    {
      "inputs": [
        {
          "internalType": "string",
          "name": "name",
          "type": "string"
        },
        {
          "internalType": "string",
          "name": "description",
          "type": "string"
        },
        {
          "internalType": "string[]",
          "name": "materials",
          "type": "string[]"
        },
        {
          "internalType": "string",
          "name": "imageUrl",
          "type": "string"
        },
        {
          "internalType": "uint256",
          "name": "price",
          "type": "uint256"
        },
        {
          "internalType": "string",
          "name": "tokenURI",
          "type": "string"
        }
      ],
      "name": "createProduct",
      "outputs": [
        {
          "internalType": "uint256",
          "name": "",
          "type": "uint256"
        }
      ],
      "stateMutability": "nonpayable",
      "type": "function"
    },
    {
      "inputs": [
        {
          "internalType": "uint256",
          "name": "tokenId",
          "type": "uint256"
        }
      ],
      "name": "getApproved",
      "outputs": [
        {
          "internalType": "address",
          "name": "",
          "type": "address"
        }
      ],
      "stateMutability": "view",
      "type": "function"
    },
    {
      "inputs": [
        {
          "internalType": "address",
          "name": "artisanAddress",
          "type": "address"
        }
      ],
      "name": "getArtisanByAddress",
      "outputs": [
        {
          "components": [
            {
              "internalType": "string",
              "name": "id",
              "type": "string"
            },
            {
              "internalType": "string",
              "name": "name",
              "type": "string"
            },
            {
              "internalType": "string",
              "name": "bio",
              "type": "string"
            },
            {
              "internalType": "string",
              "name": "profileImage",
              "type": "string"
            },
            {
              "internalType": "bool",
              "name": "isRegistered",
              "type": "bool"
            }
          ],
          "internalType": "struct ArtisanMarketplace.Artisan",
          "name": "",
          "type": "tuple"
        }
      ],
      "stateMutability": "view",
      "type": "function"
    },
    {
      "inputs": [
        {
          "internalType": "string",
          "name": "artisanId",
          "type": "string"
        }
      ],
      "name": "getArtisanById",
      "outputs": [
        {
          "components": [
            {
              "internalType": "string",
              "name": "id",
              "type": "string"
            },
            {
              "internalType": "string",
              "name": "name",
              "type": "string"
            },
            {
              "internalType": "string",
              "name": "bio",
              "type": "string"
            },
            {
              "internalType": "string",
              "name": "profileImage",
              "type": "string"
            },
            {
              "internalType": "bool",
              "name": "isRegistered",
              "type": "bool"
            }
          ],
          "internalType": "struct ArtisanMarketplace.Artisan",
          "name": "",
          "type": "tuple"
        }
      ],
      "stateMutability": "view",
      "type": "function"
    },
    {
      "inputs": [
        {
          "internalType": "uint256",
          "name": "tokenId",
          "type": "uint256"
        }
      ],
      "name": "getProductProvenance",
      "outputs": [
        {
          "components": [
            {
              "internalType": "uint256",
              "name": "timestamp",
              "type": "uint256"
            },
            {
              "internalType": "string",
              "name": "eventType",
              "type": "string"
            },
            {
              "internalType": "address",
              "name": "actorAddress",
              "type": "address"
            },
            {
              "internalType": "string",
              "name": "details",
              "type": "string"
            }
          ],
          "internalType": "struct ArtisanMarketplace.ProvenanceEvent[]",
          "name": "",
          "type": "tuple[]"
        }
      ],
      "stateMutability": "view",
      "type": "function"
    },
    {
      "inputs": [
        {
          "internalType": "address",
          "name": "owner",
          "type": "address"
        },
        {
          "internalType": "address",
          "name": "operator",
          "type": "address"
        }
      ],
      "name": "isApprovedForAll",
      "outputs": [
        {
          "internalType": "bool",
          "name": "",
          "type": "bool"
        }
      ],
      "stateMutability": "view",
      "type": "function"
    },
    {
      "inputs": [
        {
          "internalType": "address",
          "name": "artisanAddress",
          "type": "address"
        }
      ],
      "name": "isArtisanRegistered",
      "outputs": [
        {
          "internalType": "bool",
          "name": "",
          "type": "bool"
        }
      ],
      "stateMutability": "view",
      "type": "function"
    },
    {
      "inputs": [],
      "name": "name",
      "outputs": [
        {
          "internalType": "string",
          "name": "",
          "type": "string"
        }
      ],
      "stateMutability": "view",
      "type": "function"
    },
    {
      "inputs": [],
      "name": "owner",
      "outputs": [
        {
          "internalType": "address",
          "name": "",
          "type": "address"
        }
      ],
      "stateMutability": "view",
      "type": "function"
    },
    {
      "inputs": [
        {
          "internalType": "uint256",
          "name": "tokenId",
          "type": "uint256"
        }
      ],
      "name": "ownerOf",
      "outputs": [
        {
          "internalType": "address",
          "name": "",
          "type": "address"
        }
      ],
      "stateMutability": "view",
      "type": "function"
    },
    {
      "inputs": [
        {
          "internalType": "uint256",
          "name": "",
          "type": "uint256"
        },
        {
          "internalType": "uint256",
          "name": "",
          "type": "uint256"
        }
      ],
      "name": "productProvenance",
      "outputs": [
        {
          "internalType": "uint256",
          "name": "timestamp",
          "type": "uint256"
        },
        {
          "internalType": "string",
          "name": "eventType",
          "type": "string"
        },
        {
          "internalType": "address",
          "name": "actorAddress",
          "type": "address"
        },
        {
          "internalType": "string",
          "name": "details",
          "type": "string"
        }
      ],
      "stateMutability": "view",
      "type": "function"
    },
    {
      "inputs": [
        {
          "internalType": "uint256",
          "name": "",
          "type": "uint256"
        }
      ],
      "name": "products",
      "outputs": [
        {
          "internalType": "uint256",
          "name": "tokenId",
          "type": "uint256"
        },
        {
          "internalType": "string",
          "name": "name",
          "type": "string"
        },
        {
          "internalType": "string",
          "name": "description",
          "type": "string"
        },
        {
          "internalType": "string",
          "name": "artisanId",
          "type": "string"
        },
        {
          "internalType": "uint256",
          "name": "creationDate",
          "type": "uint256"
        },
        {
          "internalType": "string",
          "name": "imageUrl",
          "type": "string"
        },
        {
          "internalType": "uint256",
          "name": "price",
          "type": "uint256"
        },
        {
          "internalType": "bool",
          "name": "isVerified",
          "type": "bool"
        },
        {
          "internalType": "bool",
          "name": "isSold",
          "type": "bool"
        },
        {
          "internalType": "address",
          "name": "ownerAddress",
          "type": "address"
        }
      ],
      "stateMutability": "view",
      "type": "function"
    },
    {
      "inputs": [
        {
          "internalType": "uint256",
          "name": "tokenId",
          "type": "uint256"
        }
      ],
      "name": "purchaseProduct",
      "outputs": [],
      "stateMutability": "payable",
      "type": "function"
    },
    {
      "inputs": [
        {
          "internalType": "string",
          "name": "id",
          "type": "string"
        },
        {
          "internalType": "string",
          "name": "name",
          "type": "string"
        },
        {
          "internalType": "string",
          "name": "bio",
          "type": "string"
        },
        {
          "internalType": "string",
          "name": "profileImage",
          "type": "string"
        }
      ],
      "name": "registerArtisan",
      "outputs": [],
      "stateMutability": "nonpayable",
      "type": "function"
    },
    {
      "inputs": [],
      "name": "renounceOwnership",
      "outputs": [],
      "stateMutability": "nonpayable",
      "type": "function"
    },
    {
      "inputs": [
        {
          "internalType": "address",
          "name": "from",
          "type": "address"
        },
        {
          "internalType": "address",
          "name": "to",
          "type": "address"
        },
        {
          "internalType": "uint256",
          "name": "tokenId",
          "type": "uint256"
        }
      ],
      "name": "safeTransferFrom",
      "outputs": [],
      "stateMutability": "nonpayable",
      "type": "function"
    },
    {
      "inputs": [
        {
          "internalType": "address",
          "name": "from",
          "type": "address"
        },
        {
          "internalType": "address",
          "name": "to",
          "type": "address"
        },
        {
          "internalType": "uint256",
          "name": "tokenId",
          "type": "uint256"
        },
        {
          "internalType": "bytes",
          "name": "data",
          "type": "bytes"
        }
      ],
      "name": "safeTransferFrom",
      "outputs": [],
      "stateMutability": "nonpayable",
      "type": "function"
    },
    {
      "inputs": [
        {
          "internalType": "address",
          "name": "operator",
          "type": "address"
        },
        {
          "internalType": "bool",
          "name": "approved",
          "type": "bool"
        }
      ],
      "name": "setApprovalForAll",
      "outputs": [],
      "stateMutability": "nonpayable",
      "type": "function"
    },
    {
      "inputs": [
        {
          "internalType": "bytes4",
          "name": "interfaceId",
          "type": "bytes4"
        }
      ],
      "name": "supportsInterface",
      "outputs": [
        {
          "internalType": "bool",
          "name": "",
          "type": "bool"
        }
      ],
      "stateMutability": "view",
      "type": "function"
    },
    {
      "inputs": [],
      "name": "symbol",
      "outputs": [
        {
          "internalType": "string",
          "name": "",
          "type": "string"
        }
      ],
      "stateMutability": "view",
      "type": "function"
    },
    {
      "inputs": [
        {
          "internalType": "uint256",
          "name": "tokenId",
          "type": "uint256"
        }
      ],
      "name": "tokenURI",
      "outputs": [
        {
          "internalType": "string",
          "name": "",
          "type": "string"
        }
      ],
      "stateMutability": "view",
      "type": "function"
    },
    {
      "inputs": [
        {
          "internalType": "address",
          "name": "from",
          "type": "address"
        },
        {
          "internalType": "address",
          "name": "to",
          "type": "address"
        },
        {
          "internalType": "uint256",
          "name": "tokenId",
          "type": "uint256"
        }
      ],
      "name": "transferFrom",
      "outputs": [],
      "stateMutability": "nonpayable",
      "type": "function"
    },
    {
      "inputs": [
        {
          "internalType": "address",
          "name": "newOwner",
          "type": "address"
        }
      ],
      "name": "transferOwnership",
      "outputs": [],
      "stateMutability": "nonpayable",
      "type": "function"
    },
    {
      "inputs": [
        {
          "internalType": "uint256",
          "name": "tokenId",
          "type": "uint256"
        }
      ],
      "name": "verifyProduct",
      "outputs": [],
      "stateMutability": "nonpayable",
      "type": "function"
    }
  ],
  "bytecode": "0x60806040523480156200001157600080fd5b50336040518060400160405280601581526020017f4368656e6e61694172746973616e436f6e6e65637400000000000000000000008152506040518060400160405280600381526020016243414360e81b8152508160009081620000769190620001c0565b506001620000858282620001c0565b5050506001600160a01b038116620000b757604051631e4fbdf760e01b81526000600482015260240160405180910390fd5b620000c281620000c9565b506200028c565b600780546001600160a01b038381166001600160a01b0319831681179093556040519116919082907f8be0079c531659141344cd1fd0a4f28419497f9722a3daafe3b4186f6b6457e090600090a35050565b634e487b7160e01b600052604160045260246000fd5b600181811c908216806200014657607f821691505b6020821081036200016757634e487b7160e01b600052602260045260246000fd5b50919050565b601f821115620001bb57600081815260208120601f850160051c81016020861015620001965750805b601f850160051c820191505b81811015620001b757828155600101620001a2565b5050505b505050565b81516001600160401b03811115620001dc57620001dc6200011b565b620001f481620001ed845462000131565b846200016d565b602080601f8311600181146200022c5760008415620002135750858301515b600019600386901b1c1916600185901b178555620001b7565b600085815260208120601f198616915b828110156200025d578886015182559484019460019091019084016200023c565b50858210156200027c5787850151600019600388901b60f8161c191681555b5050505050600190811b01905550565b6134da806200029c6000396000f3fe6080604052600436106101b75760003560e01c8063715018a6116100ec578063b88d4fde1161008a578063cf259d6011610064578063cf259d6014610537578063e985e9c514610568578063ea23209614610588578063f2fde38b146105c457600080fd5b8063b88d4fde146104ca578063c87b56dd146104ea578063cc844e151461050a57600080fd5b80638da5cb5b116100c65780638da5cb5b1461045757806395d89b41146104755780639dc62f151461048a578063a22cb465146104aa57600080fd5b8063715018a6146103dc5780637acc0b20146103f157806380d256a11461042757600080fd5b806338e76a03116101595780635235b3b1116101335780635235b3b11461034e578063524e84621461037c5780636352211e1461039c57806370a08231146103bc57600080fd5b806338e76a03146102fb5780633f3339bd1461030e57806342842e0e1461032e57600080fd5b8063095ea7b311610195578063095ea7b31461024b578063129f52911461026d57806323b872dd146102ae57806336a8b771146102ce57600080fd5b806301ffc9a7146101bc57806306fdde03146101f1578063081812fc14610213575b600080fd5b3480156101c857600080fd5b506101dc6101d7366004612a30565b6105e4565b60405190151581526020015b60405180910390f35b3480156101fd57600080fd5b5061020661060f565b6040516101e89190612a9d565b34801561021f57600080fd5b5061023361022e366004612ab0565b6106a1565b6040516001600160a01b0390911681526020016101e8565b34801561025757600080fd5b5061026b610266366004612ae5565b6106ca565b005b34801561027957600080fd5b50610233610288366004612bce565b8051602081830181018051600c825292820191909301209152546001600160a01b031681565b3480156102ba57600080fd5b5061026b6102c9366004612c03565b6106d9565b3480156102da57600080fd5b506102ee6102e9366004612c3f565b610769565b6040516101e89190612c5a565b61026b610309366004612ab0565b610a1e565b34801561031a57600080fd5b5061026b610329366004612ce8565b610c44565b34801561033a57600080fd5b5061026b610349366004612c03565b610e4b565b34801561035a57600080fd5b5061036e610369366004612e34565b610e6b565b6040519081526020016101e8565b34801561038857600080fd5b5061026b610397366004612ab0565b6111a8565b3480156103a857600080fd5b506102336103b7366004612ab0565b611268565b3480156103c857600080fd5b5061036e6103d7366004612c3f565b611273565b3480156103e857600080fd5b5061026b6112bb565b3480156103fd57600080fd5b5061041161040c366004612ab0565b6112cf565b6040516101e89a99989796959493929190612f0e565b34801561043357600080fd5b50610447610442366004612f9f565b61154c565b6040516101e89493929190612fc1565b34801561046357600080fd5b506007546001600160a01b0316610233565b34801561048157600080fd5b506102066116b8565b34801561049657600080fd5b506102ee6104a5366004612bce565b6116c7565b3480156104b657600080fd5b5061026b6104c5366004613006565b6119eb565b3480156104d657600080fd5b5061026b6104e5366004613042565b6119f6565b3480156104f657600080fd5b50610206610505366004612ab0565b611a0e565b34801561051657600080fd5b5061052a610525366004612ab0565b611b1f565b6040516101e891906130b2565b34801561054357600080fd5b50610557610552366004612c3f565b611cd6565b6040516101e8959493929190613158565b34801561057457600080fd5b506101dc6105833660046131ba565b611f27565b34801561059457600080fd5b506101dc6105a3366004612c3f565b6001600160a01b031660009081526009602052604090206004015460ff1690565b3480156105d057600080fd5b5061026b6105df366004612c3f565b611f55565b60006001600160e01b03198216632483248360e11b1480610609575061060982611f90565b92915050565b60606000805461061e906131ed565b80601f016020809104026020016040519081016040528092919081815260200182805461064a906131ed565b80156106975780601f1061066c57610100808354040283529160200191610697565b820191906000526020600020905b81548152906001019060200180831161067a57829003601f168201915b5050505050905090565b60006106ac82611fe0565b506000828152600460205260409020546001600160a01b0316610609565b6106d5828233612019565b5050565b6001600160a01b03821661070857604051633250574960e11b8152600060048201526024015b60405180910390fd5b6000610715838333612026565b9050836001600160a01b0316816001600160a01b031614610763576040516364283d7b60e01b81526001600160a01b03808616600483015260248201849052821660448201526064016106ff565b50505050565b61079d6040518060a00160405280606081526020016060815260200160608152602001606081526020016000151581525090565b6001600160a01b03821660009081526009602052604090819020815160a081019092528054829082906107cf906131ed565b80601f01602080910402602001604051908101604052809291908181526020018280546107fb906131ed565b80156108485780601f1061081d57610100808354040283529160200191610848565b820191906000526020600020905b81548152906001019060200180831161082b57829003601f168201915b50505050508152602001600182018054610861906131ed565b80601f016020809104026020016040519081016040528092919081815260200182805461088d906131ed565b80156108da5780601f106108af576101008083540402835291602001916108da565b820191906000526020600020905b8154815290600101906020018083116108bd57829003601f168201915b505050505081526020016002820180546108f3906131ed565b80601f016020809104026020016040519081016040528092919081815260200182805461091f906131ed565b801561096c5780601f106109415761010080835404028352916020019161096c565b820191906000526020600020905b81548152906001019060200180831161094f57829003601f168201915b50505050508152602001600382018054610985906131ed565b80601f01602080910402602001604051908101604052809291908181526020018280546109b1906131ed565b80156109fe5780601f106109d3576101008083540402835291602001916109fe565b820191906000526020600020905b8154815290600101906020018083116109e157829003601f168201915b50505091835250506004919091015460ff16151560209091015292915050565b6000818152600a602052604090206008810154610100900460ff1615610a7d5760405162461bcd60e51b8152602060048201526014602482015273141c9bd91d58dd08185b1c9958591e481cdbdb1960621b60448201526064016106ff565b8060070154341015610ac65760405162461bcd60e51b8152602060048201526012602482015271496e73756666696369656e742066756e647360701b60448201526064016106ff565b6008810180543362010000818102610100600160b01b0319841617610100179093556001600160a01b03929091049190911690610b059082908561211f565b610b56836040518060400160405280600481526020016314dbdb1960e21b8152503360405180604001604052806011815260200170141c9bd91d58dd081c1d5c98da185cd959607a1b8152506121cf565b6000816001600160a01b03163460405160006040518083038185875af1925050503d8060008114610ba3576040519150601f19603f3d011682016040523d82523d6000602084013e610ba8565b606091505b5050905080610bf05760405162461bcd60e51b81526020600482015260146024820152732330b4b632b2103a379039b2b7321022ba3432b960611b60448201526064016106ff565b336001600160a01b0316826001600160a01b0316857fa02e46fc9bbd3e1138787bc1dc117ae0b9a5a3745ea30b0ab673d79d9073902934604051610c3691815260200190565b60405180910390a450505050565b3360009081526009602052604090206004015460ff1615610ca75760405162461bcd60e51b815260206004820152601a60248201527f4172746973616e20616c7265616479207265676973746572656400000000000060448201526064016106ff565b60006001600160a01b0316600c85604051610cc29190613227565b908152604051908190036020019020546001600160a01b031614610d285760405162461bcd60e51b815260206004820152601960248201527f4172746973616e20494420616c7265616479206578697374730000000000000060448201526064016106ff565b6040805160a0810182528581526020808201869052818301859052606082018490526001608083015233600090815260099091529190912081518190610d6e9082613289565b5060208201516001820190610d839082613289565b5060408201516002820190610d989082613289565b5060608201516003820190610dad9082613289565b50608091909101516004909101805460ff19169115159190911790556040513390600c90610ddc908790613227565b90815260405190819003602001812080546001600160a01b03939093166001600160a01b03199093169290921790915533907fa3b23b18c6e30bb740bf9a31d741443b1d258328c2522cc13c714d26db82ef1e90610e3d9087908790613349565b60405180910390a250505050565b610e66838383604051806020016040528060008152506119f6565b505050565b3360009081526009602052604081206004015460ff16610ee25760405162461bcd60e51b815260206004820152602c60248201527f4f6e6c792072656769737465726564206172746973616e732063616e2063726560448201526b6174652070726f647563747360a01b60648201526084016106ff565b6008805460009182610ef383613377565b919050559050610f0333826122b2565b610f0d8184612317565b60405180610160016040528082815260200189815260200188815260200187815260200160096000336001600160a01b03166001600160a01b031681526020019081526020016000206000018054610f64906131ed565b80601f0160208091040260200160405190810160405280929190818152602001828054610f90906131ed565b8015610fdd5780601f10610fb257610100808354040283529160200191610fdd565b820191906000526020600020905b815481529060010190602001808311610fc057829003601f168201915b50505091835250504260208083019190915260408083018990526060830188905260006080840181905260a084018190523360c090940193909352848352600a8252909120825181559082015160018201906110399082613289565b506040820151600282019061104e9082613289565b506060820151805161106a91600384019160209091019061295d565b506080820151600482019061107f9082613289565b5060a0820151600582015560c0820151600682019061109e9082613289565b5060e0820151600782015561010080830151600890920180546101208501516101409095015161ffff1990911693151561ff001916939093179315159091029290921762010000600160b01b031916620100006001600160a01b0390921691909102179055604080518082018252601281527121b932b0ba32b210313c9020b93a34b9b0b760711b6020808301919091528251808401909352601083526f24b734ba34b0b61031b932b0ba34b7b760811b908301526111619183919033906121cf565b807f90934fc9dc1095f968f4207cb62e27da1da3e31653ff34cbf837b6c349ded7608933876040516111959392919061339e565b60405180910390a2979650505050505050565b6111b0612367565b6000818152600a602052604090205481146112065760405162461bcd60e51b8152602060048201526016602482015275141c9bd91d58dd08191bd95cc81b9bdd08195e1a5cdd60521b60448201526064016106ff565b6000818152600a60209081526040918290206008908101805460ff19166001179055825180840184529081526715995c9a599a595960c21b818301528251606081019093526025808452611265938593339290613480908301396121cf565b50565b600061060982611fe0565b60006001600160a01b03821661129f576040516322718ad960e21b8152600060048201526024016106ff565b506001600160a01b031660009081526003602052604090205490565b6112c3612367565b6112cd6000612394565b565b600a60205260009081526040902080546001820180549192916112f1906131ed565b80601f016020809104026020016040519081016040528092919081815260200182805461131d906131ed565b801561136a5780601f1061133f5761010080835404028352916020019161136a565b820191906000526020600020905b81548152906001019060200180831161134d57829003601f168201915b50505050509080600201805461137f906131ed565b80601f01602080910402602001604051908101604052809291908181526020018280546113ab906131ed565b80156113f85780601f106113cd576101008083540402835291602001916113f8565b820191906000526020600020905b8154815290600101906020018083116113db57829003601f168201915b50505050509080600401805461140d906131ed565b80601f0160208091040260200160405190810160405280929190818152602001828054611439906131ed565b80156114865780601f1061145b57610100808354040283529160200191611486565b820191906000526020600020905b81548152906001019060200180831161146957829003601f168201915b5050505050908060050154908060060180546114a1906131ed565b80601f01602080910402602001604051908101604052809291908181526020018280546114cd906131ed565b801561151a5780601f106114ef5761010080835404028352916020019161151a565b820191906000526020600020905b8154815290600101906020018083116114fd57829003601f168201915b50505050600783015460089093015491929160ff8082169250610100820416906201000090046001600160a01b03168a565b600b602052816000526040600020818154811061156857600080fd5b906000526020600020906004020160009150915050806000015490806001018054611592906131ed565b80601f01602080910402602001604051908101604052809291908181526020018280546115be906131ed565b801561160b5780601f106115e05761010080835404028352916020019161160b565b820191906000526020600020905b8154815290600101906020018083116115ee57829003601f168201915b505050600284015460038501805494956001600160a01b03909216949193509150611635906131ed565b80601f0160208091040260200160405190810160405280929190818152602001828054611661906131ed565b80156116ae5780601f10611683576101008083540402835291602001916116ae565b820191906000526020600020905b81548152906001019060200180831161169157829003601f168201915b5050505050905084565b60606001805461061e906131ed565b6116fb6040518060a00160405280606081526020016060815260200160608152602001606081526020016000151581525090565b6000600c8360405161170d9190613227565b908152604051908190036020019020546001600160a01b03169050806117695760405162461bcd60e51b8152602060048201526011602482015270105c9d1a5cd85b881b9bdd08199bdd5b99607a1b60448201526064016106ff565b6001600160a01b03811660009081526009602052604090819020815160a0810190925280548290829061179b906131ed565b80601f01602080910402602001604051908101604052809291908181526020018280546117c7906131ed565b80156118145780601f106117e957610100808354040283529160200191611814565b820191906000526020600020905b8154815290600101906020018083116117f757829003601f168201915b5050505050815260200160018201805461182d906131ed565b80601f0160208091040260200160405190810160405280929190818152602001828054611859906131ed565b80156118a65780601f1061187b576101008083540402835291602001916118a6565b820191906000526020600020905b81548152906001019060200180831161188957829003601f168201915b505050505081526020016002820180546118bf906131ed565b80601f01602080910402602001604051908101604052809291908181526020018280546118eb906131ed565b80156119385780601f1061190d57610100808354040283529160200191611938565b820191906000526020600020905b81548152906001019060200180831161191b57829003601f168201915b50505050508152602001600382018054611951906131ed565b80601f016020809104026020016040519081016040528092919081815260200182805461197d906131ed565b80156119ca5780601f1061199f576101008083540402835291602001916119ca565b820191906000526020600020905b8154815290600101906020018083116119ad57829003601f168201915b50505091835250506004919091015460ff1615156020909101529392505050565b6106d53383836123e6565b611a018484846106d9565b6107633385858585612485565b6060611a1982611fe0565b5060008281526006602052604081208054611a33906131ed565b80601f0160208091040260200160405190810160405280929190818152602001828054611a5f906131ed565b8015611aac5780601f10611a8157610100808354040283529160200191611aac565b820191906000526020600020905b815481529060010190602001808311611a8f57829003601f168201915b505050505090506000611aca60408051602081019091526000815290565b90508051600003611adc575092915050565b815115611b0e578082604051602001611af69291906133cc565b60405160208183030381529060405292505050919050565b611b17846125b0565b949350505050565b6060600b6000838152602001908152602001600020805480602002602001604051908101604052809291908181526020016000905b82821015611ccb578382906000526020600020906004020160405180608001604052908160008201548152602001600182018054611b91906131ed565b80601f0160208091040260200160405190810160405280929190818152602001828054611bbd906131ed565b8015611c0a5780601f10611bdf57610100808354040283529160200191611c0a565b820191906000526020600020905b815481529060010190602001808311611bed57829003601f168201915b505050918352505060028201546001600160a01b03166020820152600382018054604090920191611c3a906131ed565b80601f0160208091040260200160405190810160405280929190818152602001828054611c66906131ed565b8015611cb35780601f10611c8857610100808354040283529160200191611cb3565b820191906000526020600020905b815481529060010190602001808311611c9657829003601f168201915b50505050508152505081526020019060010190611b54565b505050509050919050565b600960205260009081526040902080548190611cf1906131ed565b80601f0160208091040260200160405190810160405280929190818152602001828054611d1d906131ed565b8015611d6a5780601f10611d3f57610100808354040283529160200191611d6a565b820191906000526020600020905b815481529060010190602001808311611d4d57829003601f168201915b505050505090806001018054611d7f906131ed565b80601f0160208091040260200160405190810160405280929190818152602001828054611dab906131ed565b8015611df85780601f10611dcd57610100808354040283529160200191611df8565b820191906000526020600020905b815481529060010190602001808311611ddb57829003601f168201915b505050505090806002018054611e0d906131ed565b80601f0160208091040260200160405190810160405280929190818152602001828054611e39906131ed565b8015611e865780601f10611e5b57610100808354040283529160200191611e86565b820191906000526020600020905b815481529060010190602001808311611e6957829003601f168201915b505050505090806003018054611e9b906131ed565b80601f0160208091040260200160405190810160405280929190818152602001828054611ec7906131ed565b8015611f145780601f10611ee957610100808354040283529160200191611f14565b820191906000526020600020905b815481529060010190602001808311611ef757829003601f168201915b5050506004909301549192505060ff1685565b6001600160a01b03918216600090815260056020908152604080832093909416825291909152205460ff1690565b611f5d612367565b6001600160a01b038116611f8757604051631e4fbdf760e01b8152600060048201526024016106ff565b61126581612394565b60006001600160e01b031982166380ac58cd60e01b1480611fc157506001600160e01b03198216635b5e139f60e01b145b8061060957506301ffc9a760e01b6001600160e01b0319831614610609565b6000818152600260205260408120546001600160a01b03168061060957604051637e27328960e01b8152600481018490526024016106ff565b610e668383836001612625565b6000828152600260205260408120546001600160a01b03908116908316156120535761205381848661272b565b6001600160a01b0381161561209157612070600085600080612625565b6001600160a01b038116600090815260036020526040902080546000190190555b6001600160a01b038516156120c0576001600160a01b0385166000908152600360205260409020805460010190555b60008481526002602052604080822080546001600160a01b0319166001600160a01b0389811691821790925591518793918516917fddf252ad1be2c89b69c2b068fc378daa952ba7f163c4a11628f55a4df523b3ef91a4949350505050565b6001600160a01b03821661214957604051633250574960e11b8152600060048201526024016106ff565b600061215783836000612026565b90506001600160a01b03811661218357604051637e27328960e01b8152600481018390526024016106ff565b836001600160a01b0316816001600160a01b031614610763576040516364283d7b60e01b81526001600160a01b03808616600483015260248201849052821660448201526064016106ff565b6040805160808101825242815260208082018681526001600160a01b03861683850152606083018590526000888152600b83529384208054600181810183559186529290942083516004909302019182555191928392908201906122339082613289565b5060408201516002820180546001600160a01b0319166001600160a01b039092169190911790556060820151600382019061226e9082613289565b505050847fb9e55895d4efd9166355272d5d916c5d3e9dd112a9874306bd7a94c02b41cb1185856040516122a39291906133fb565b60405180910390a25050505050565b6001600160a01b0382166122dc57604051633250574960e11b8152600060048201526024016106ff565b60006122ea83836000612026565b90506001600160a01b03811615610e66576040516339e3563760e11b8152600060048201526024016106ff565b600082815260066020526040902061232f8282613289565b506040518281527ff8e1a15aba9398e019f0b49df1a4fde98ee17ae345cb5f6b5e2c27f5033e8ce79060200160405180910390a15050565b6007546001600160a01b031633146112cd5760405163118cdaa760e01b81523360048201526024016106ff565b600780546001600160a01b038381166001600160a01b0319831681179093556040519116919082907f8be0079c531659141344cd1fd0a4f28419497f9722a3daafe3b4186f6b6457e090600090a35050565b6001600160a01b03821661241857604051630b61174360e31b81526001600160a01b03831660048201526024016106ff565b6001600160a01b03838116600081815260056020908152604080832094871680845294825291829020805460ff191686151590811790915591519182527f17307eab39ab6107e8899845ad3d59bd9653f200f220920489ca2b5937696c31910160405180910390a3505050565b6001600160a01b0383163b156125a957604051630a85bd0160e11b81526001600160a01b0384169063150b7a02906124c7908890889087908790600401613425565b6020604051808303816000875af1925050508015612502575060408051601f3d908101601f191682019092526124ff91810190613462565b60015b61256b573d808015612530576040519150601f19603f3d011682016040523d82523d6000602084013e612535565b606091505b50805160000361256357604051633250574960e11b81526001600160a01b03851660048201526024016106ff565b805181602001fd5b6001600160e01b03198116630a85bd0160e11b146125a757604051633250574960e11b81526001600160a01b03851660048201526024016106ff565b505b5050505050565b60606125bb82611fe0565b5060006125d360408051602081019091526000815290565b905060008151116125f3576040518060200160405280600081525061261e565b806125fd8461278f565b60405160200161260e9291906133cc565b6040516020818303038152906040525b9392505050565b808061263957506001600160a01b03821615155b156126fb57600061264984611fe0565b90506001600160a01b038316158015906126755750826001600160a01b0316816001600160a01b031614155b801561268857506126868184611f27565b155b156126b15760405163a9fbf51f60e01b81526001600160a01b03841660048201526024016106ff565b81156126f95783856001600160a01b0316826001600160a01b03167f8c5be1e5ebec7d5bd14f71427d1e84f3dd0314c0f7b2291e5b200ac8c7c3b92560405160405180910390a45b505b5050600090815260046020526040902080546001600160a01b0319166001600160a01b0392909216919091179055565b612736838383612822565b610e66576001600160a01b03831661276457604051637e27328960e01b8152600481018290526024016106ff565b60405163177e802f60e01b81526001600160a01b0383166004820152602481018290526044016106ff565b6060600061279c83612885565b600101905060008167ffffffffffffffff8111156127bc576127bc612b0f565b6040519080825280601f01601f1916602001820160405280156127e6576020820181803683370190505b5090508181016020015b600019016f181899199a1a9b1b9c1cb0b131b232b360811b600a86061a8153600a85049450846127f057509392505050565b60006001600160a01b03831615801590611b175750826001600160a01b0316846001600160a01b0316148061285c575061285c8484611f27565b80611b175750506000908152600460205260409020546001600160a01b03908116911614919050565b60008072184f03e93ff9f4daa797ed6e38ed64bf6a1f0160401b83106128c45772184f03e93ff9f4daa797ed6e38ed64bf6a1f0160401b830492506040015b6d04ee2d6d415b85acef810000000083106128f0576d04ee2d6d415b85acef8100000000830492506020015b662386f26fc10000831061290e57662386f26fc10000830492506010015b6305f5e1008310612926576305f5e100830492506008015b612710831061293a57612710830492506004015b6064831061294c576064830492506002015b600a83106106095760010192915050565b8280548282559060005260206000209081019282156129a3579160200282015b828111156129a357825182906129939082613289565b509160200191906001019061297d565b506129af9291506129b3565b5090565b808211156129af5760006129c782826129d0565b506001016129b3565b5080546129dc906131ed565b6000825580601f106129ec575050565b601f01602090049060005260206000209081019061126591905b808211156129af5760008155600101612a06565b6001600160e01b03198116811461126557600080fd5b600060208284031215612a4257600080fd5b813561261e81612a1a565b60005b83811015612a68578181015183820152602001612a50565b50506000910152565b60008151808452612a89816020860160208601612a4d565b601f01601f19169290920160200192915050565b60208152600061261e6020830184612a71565b600060208284031215612ac257600080fd5b5035919050565b80356001600160a01b0381168114612ae057600080fd5b919050565b60008060408385031215612af857600080fd5b612b0183612ac9565b946020939093013593505050565b634e487b7160e01b600052604160045260246000fd5b604051601f8201601f1916810167ffffffffffffffff81118282101715612b4e57612b4e612b0f565b604052919050565b600067ffffffffffffffff831115612b7057612b70612b0f565b612b83601f8401601f1916602001612b25565b9050828152838383011115612b9757600080fd5b828260208301376000602084830101529392505050565b600082601f830112612bbf57600080fd5b61261e83833560208501612b56565b600060208284031215612be057600080fd5b813567ffffffffffffffff811115612bf757600080fd5b611b1784828501612bae565b600080600060608486031215612c1857600080fd5b612c2184612ac9565b9250612c2f60208501612ac9565b9150604084013590509250925092565b600060208284031215612c5157600080fd5b61261e82612ac9565b602081526000825160a06020840152612c7660c0840182612a71565b90506020840151601f1980858403016040860152612c948383612a71565b92506040860151915080858403016060860152612cb18383612a71565b9250606086015191508085840301608086015250612ccf8282612a71565b9150506080840151151560a08401528091505092915050565b60008060008060808587031215612cfe57600080fd5b843567ffffffffffffffff80821115612d1657600080fd5b612d2288838901612bae565b95506020870135915080821115612d3857600080fd5b612d4488838901612bae565b94506040870135915080821115612d5a57600080fd5b612d6688838901612bae565b93506060870135915080821115612d7c57600080fd5b50612d8987828801612bae565b91505092959194509250565b600082601f830112612da657600080fd5b8135602067ffffffffffffffff80831115612dc357612dc3612b0f565b8260051b612dd2838201612b25565b9384528581018301938381019088861115612dec57600080fd5b84880192505b85831015612e2857823584811115612e0a5760008081fd5b612e188a87838c0101612bae565b8352509184019190840190612df2565b98975050505050505050565b60008060008060008060c08789031215612e4d57600080fd5b863567ffffffffffffffff80821115612e6557600080fd5b612e718a838b01612bae565b97506020890135915080821115612e8757600080fd5b612e938a838b01612bae565b96506040890135915080821115612ea957600080fd5b612eb58a838b01612d95565b95506060890135915080821115612ecb57600080fd5b612ed78a838b01612bae565b94506080890135935060a0890135915080821115612ef457600080fd5b50612f0189828a01612bae565b9150509295509295509295565b60006101408c8352806020840152612f288184018d612a71565b90508281036040840152612f3c818c612a71565b90508281036060840152612f50818b612a71565b905088608084015282810360a0840152612f6a8189612a71565b60c0840197909752505092151560e08401529015156101008301526001600160a01b0316610120909101529695505050505050565b60008060408385031215612fb257600080fd5b50508035926020909101359150565b848152608060208201526000612fda6080830186612a71565b6001600160a01b03851660408401528281036060840152612ffb8185612a71565b979650505050505050565b6000806040838503121561301957600080fd5b61302283612ac9565b91506020830135801515811461303757600080fd5b809150509250929050565b6000806000806080858703121561305857600080fd5b61306185612ac9565b935061306f60208601612ac9565b925060408501359150606085013567ffffffffffffffff81111561309257600080fd5b8501601f810187136130a357600080fd5b612d8987823560208401612b56565b60006020808301818452808551808352604092508286019150828160051b87010184880160005b8381101561314a57603f19898403018552815160808151855288820151818a87015261310782870182612a71565b838a01516001600160a01b0316878b015260609384015187820394880194909452915061313690508183612a71565b9689019694505050908601906001016130d9565b509098975050505050505050565b60a08152600061316b60a0830188612a71565b828103602084015261317d8188612a71565b905082810360408401526131918187612a71565b905082810360608401526131a58186612a71565b91505082151560808301529695505050505050565b600080604083850312156131cd57600080fd5b6131d683612ac9565b91506131e460208401612ac9565b90509250929050565b600181811c9082168061320157607f821691505b60208210810361322157634e487b7160e01b600052602260045260246000fd5b50919050565b60008251613239818460208701612a4d565b9190910192915050565b601f821115610e6657600081815260208120601f850160051c8101602086101561326a5750805b601f850160051c820191505b818110156125a757828155600101613276565b815167ffffffffffffffff8111156132a3576132a3612b0f565b6132b7816132b184546131ed565b84613243565b602080601f8311600181146132ec57600084156132d45750858301515b600019600386901b1c1916600185901b1785556125a7565b600085815260208120601f198616915b8281101561331b578886015182559484019460019091019084016132fc565b50858210156133395787850151600019600388901b60f8161c191681555b5050505050600190811b01905550565b60408152600061335c6040830185612a71565b828103602084015261336e8185612a71565b95945050505050565b60006001820161339757634e487b7160e01b600052601160045260246000fd5b5060010190565b6060815260006133b16060830186612a71565b6001600160a01b039490941660208301525060400152919050565b600083516133de818460208801612a4d565b8351908301906133f2818360208801612a4d565b01949350505050565b60408152600061340e6040830185612a71565b905060018060a01b03831660208301529392505050565b6001600160a01b038581168252841660208201526040810183905260806060820181905260009061345890830184612a71565b9695505050505050565b60006020828403121561347457600080fd5b815161261e81612a1a56fe50726f64756374207665726966696564206279206d61726b6574706c616365206f776e6572a264697066735822122030bf9808f1af6e13ceac71043736dfd045fdfe258a9562e31e11df2cb6d3525864736f6c63430008140033",
  "linkReferences": {},
  "deployedLinkReferences": {}
}