{
  "_format": "hh-sol-artifact-1",
  "contractName": "ArtisanMarketplace",
  "sourceName": "contracts/ArtisanMarketplace.sol",
  "abi": [
    {
      "inputs": [],
      "stateMutability": "nonpayable",
      "type": "constructor"
    },
    {
      "inputs": [
        {
          "internalType": "address",
          "name": "sender",
          "type": "address"
        },
        {
          "internalType": "uint256",
          "name": "tokenId",
          "type": "uint256"
        },
        {
          "internalType": "address",
          "name": "owner",
          "type": "address"
        }
      ],
      "name": "ERC721IncorrectOwner",
      "type": "error"
    },
    {
      "inputs": [
        {
          "internalType": "address",
          "name": "operator",
          "type": "address"
        },
        {
          "internalType": "uint256",
          "name": "tokenId",
          "type": "uint256"
        }
      ],
      "name": "ERC721InsufficientApproval",
      "type": "error"
    },
    {
      "inputs": [
        {
          "internalType": "address",
          "name": "approver",
          "type": "address"
        }
      ],
      "name": "ERC721InvalidApprover",
      "type": "error"
    },
    {
      "inputs": [
        {
          "internalType": "address",
          "name": "operator",
          "type": "address"
        }
      ],
      "name": "ERC721InvalidOperator",
      "type": "error"
    },
    {
      "inputs": [
        {
          "internalType": "address",
          "name": "owner",
          "type": "address"
        }
      ],
      "name": "ERC721InvalidOwner",
      "type": "error"
    },
    {
      "inputs": [
        {
          "internalType": "address",
          "name": "receiver",
          "type": "address"
        }
      ],
      "name": "ERC721InvalidReceiver",
      "type": "error"
    },
    {
      "inputs": [
        {
          "internalType": "address",
          "name": "sender",
          "type": "address"
        }
      ],
      "name": "ERC721InvalidSender",
      "type": "error"
    },
    {
      "inputs": [
        {
          "internalType": "uint256",
          "name": "tokenId",
          "type": "uint256"
        }
      ],
      "name": "ERC721NonexistentToken",
      "type": "error"
    },
    {
      "inputs": [
        {
          "internalType": "address",
          "name": "owner",
          "type": "address"
        }
      ],
      "name": "OwnableInvalidOwner",
      "type": "error"
    },
    {
      "inputs": [
        {
          "internalType": "address",
          "name": "account",
          "type": "address"
        }
      ],
      "name": "OwnableUnauthorizedAccount",
      "type": "error"
    },
    {
      "anonymous": false,
      "inputs": [
        {
          "indexed": true,
          "internalType": "address",
          "name": "owner",
          "type": "address"
        },
        {
          "indexed": true,
          "internalType": "address",
          "name": "approved",
          "type": "address"
        },
        {
          "indexed": true,
          "internalType": "uint256",
          "name": "tokenId",
          "type": "uint256"
        }
      ],
      "name": "Approval",
      "type": "event"
    },
    {
      "anonymous": false,
      "inputs": [
        {
          "indexed": true,
          "internalType": "address",
          "name": "owner",
          "type": "address"
        },
        {
          "indexed": true,
          "internalType": "address",
          "name": "operator",
          "type": "address"
        },
        {
          "indexed": false,
          "internalType": "bool",
          "name": "approved",
          "type": "bool"
        }
      ],
      "name": "ApprovalForAll",
      "type": "event"
    },
    {
      "anonymous": false,
      "inputs": [
        {
          "indexed": true,
          "internalType": "address",
          "name": "artisanAddress",
          "type": "address"
        },
        {
          "indexed": false,
          "internalType": "string",
          "name": "id",
          "type": "string"
        },
        {
          "indexed": false,
          "internalType": "string",
          "name": "name",
          "type": "string"
        }
      ],
      "name": "ArtisanRegistered",
      "type": "event"
    },
    {
      "anonymous": false,
      "inputs": [
        {
          "indexed": false,
          "internalType": "uint256",
          "name": "_fromTokenId",
          "type": "uint256"
        },
        {
          "indexed": false,
          "internalType": "uint256",
          "name": "_toTokenId",
          "type": "uint256"
        }
      ],
      "name": "BatchMetadataUpdate",
      "type": "event"
    },
    {
      "anonymous": false,
      "inputs": [
        {
          "indexed": false,
          "internalType": "uint256",
          "name": "_tokenId",
          "type": "uint256"
        }
      ],
      "name": "MetadataUpdate",
      "type": "event"
    },
    {
      "anonymous": false,
      "inputs": [
        {
          "indexed": true,
          "internalType": "address",
          "name": "previousOwner",
          "type": "address"
        },
        {
          "indexed": true,
          "internalType": "address",
          "name": "newOwner",
          "type": "address"
        }
      ],
      "name": "OwnershipTransferred",
      "type": "event"
    },
    {
      "anonymous": false,
      "inputs": [
        {
          "indexed": true,
          "internalType": "uint256",
          "name": "tokenId",
          "type": "uint256"
        },
        {
          "indexed": false,
          "internalType": "string",
          "name": "name",
          "type": "string"
        },
        {
          "indexed": false,
          "internalType": "address",
          "name": "artisanAddress",
          "type": "address"
        },
        {
          "indexed": false,
          "internalType": "uint256",
          "name": "price",
          "type": "uint256"
        }
      ],
      "name": "ProductCreated",
      "type": "event"
    },
    {
      "anonymous": false,
      "inputs": [
        {
          "indexed": true,
          "internalType": "uint256",
          "name": "tokenId",
          "type": "uint256"
        },
        {
          "indexed": true,
          "internalType": "address",
          "name": "seller",
          "type": "address"
        },
        {
          "indexed": true,
          "internalType": "address",
          "name": "buyer",
          "type": "address"
        },
        {
          "indexed": false,
          "internalType": "uint256",
          "name": "price",
          "type": "uint256"
        }
      ],
      "name": "ProductSold",
      "type": "event"
    },
    {
      "anonymous": false,
      "inputs": [
        {
          "indexed": true,
          "internalType": "uint256",
          "name": "tokenId",
          "type": "uint256"
        },
        {
          "indexed": false,
          "internalType": "string",
          "name": "eventType",
          "type": "string"
        },
        {
          "indexed": false,
          "internalType": "address",
          "name": "actorAddress",
          "type": "address"
        }
      ],
      "name": "ProvenanceAdded",
      "type": "event"
    },
    {
      "anonymous": false,
      "inputs": [
        {
          "indexed": true,
          "internalType": "address",
          "name": "from",
          "type": "address"
        },
        {
          "indexed": true,
          "internalType": "address",
          "name": "to",
          "type": "address"
        },
        {
          "indexed": true,
          "internalType": "uint256",
          "name": "tokenId",
          "type": "uint256"
        }
      ],
      "name": "Transfer",
      "type": "event"
    },
    {
      "inputs": [
        {
          "internalType": "address",
          "name": "to",
          "type": "address"
        },
        {
          "internalType": "uint256",
          "name": "tokenId",
          "type": "uint256"
        }
      ],
      "name": "approve",
      "outputs": [],
      "stateMutability": "nonpayable",
      "type": "function"
    },
    {
      "inputs": [
        {
          "internalType": "string",
          "name": "",
          "type": "string"
        }
      ],
      "name": "artisanIdToAddress",
      "outputs": [
        {
          "internalType": "address",
          "name": "",
          "type": "address"
        }
      ],
      "stateMutability": "view",
      "type": "function"
    },
    {
      "inputs": [
        {
          "internalType": "address",
          "name": "",
          "type": "address"
        }
      ],
      "name": "artisans",
      "outputs": [
        {
          "internalType": "string",
          "name": "id",
          "type": "string"
        },
        {
          "internalType": "string",
          "name": "name",
          "type": "string"
        },
        {
          "internalType": "string",
          "name": "bio",
          "type": "string"
        },
        {
          "internalType": "string",
          "name": "profileImage",
          "type": "string"
        },
        {
          "internalType": "bool",
          "name": "isRegistered",
          "type": "bool"
        }
      ],
      "stateMutability": "view",
      "type": "function"
    },
    {
      "inputs": [
        {
          "internalType": "address",
          "name": "owner",
          "type": "address"
        }
      ],
      "name": "balanceOf",
      "outputs": [
        {
          "internalType": "uint256",
          "name": "",
          "type": "uint256"
        }
      ],
      "stateMutability": "view",
      "type": "function"
    },
    {
      "inputs": [
        {
          "internalType": "string",
          "name": "name",
          "type": "string"
        },
        {
          "internalType": "string",
          "name": "description",
          "type": "string"
        },
        {
          "internalType": "string[]",
          "name": "materials",
          "type": "string[]"
        },
        {
          "internalType": "string",
          "name": "imageUrl",
          "type": "string"
        },
        {
          "internalType": "uint256",
          "name": "price",
          "type": "uint256"
        },
        {
          "internalType": "string",
          "name": "tokenURI",
          "type": "string"
        }
      ],
      "name": "createProduct",
      "outputs": [
        {
          "internalType": "uint256",
          "name": "",
          "type": "uint256"
        }
      ],
      "stateMutability": "nonpayable",
      "type": "function"
    },
    {
      "inputs": [
        {
          "internalType": "uint256",
          "name": "tokenId",
          "type": "uint256"
        }
      ],
      "name": "getApproved",
      "outputs": [
        {
          "internalType": "address",
          "name": "",
          "type": "address"
        }
      ],
      "stateMutability": "view",
      "type": "function"
    },
    {
      "inputs": [
        {
          "internalType": "address",
          "name": "artisanAddress",
          "type": "address"
        }
      ],
      "name": "getArtisanByAddress",
      "outputs": [
        {
          "components": [
            {
              "internalType": "string",
              "name": "id",
              "type": "string"
            },
            {
              "internalType": "string",
              "name": "name",
              "type": "string"
            },
            {
              "internalType": "string",
              "name": "bio",
              "type": "string"
            },
            {
              "internalType": "string",
              "name": "profileImage",
              "type": "string"
            },
            {
              "internalType": "bool",
              "name": "isRegistered",
              "type": "bool"
            }
          ],
          "internalType": "struct ArtisanMarketplace.Artisan",
          "name": "",
          "type": "tuple"
        }
      ],
      "stateMutability": "view",
      "type": "function"
    },
    {
      "inputs": [
        {
          "internalType": "string",
          "name": "artisanId",
          "type": "string"
        }
      ],
      "name": "getArtisanById",
      "outputs": [
        {
          "components": [
            {
              "internalType": "string",
              "name": "id",
              "type": "string"
            },
            {
              "internalType": "string",
              "name": "name",
              "type": "string"
            },
            {
              "internalType": "string",
              "name": "bio",
              "type": "string"
            },
            {
              "internalType": "string",
              "name": "profileImage",
              "type": "string"
            },
            {
              "internalType": "bool",
              "name": "isRegistered",
              "type": "bool"
            }
          ],
          "internalType": "struct ArtisanMarketplace.Artisan",
          "name": "",
          "type": "tuple"
        }
      ],
      "stateMutability": "view",
      "type": "function"
    },
    {
      "inputs": [
        {
          "internalType": "uint256",
          "name": "tokenId",
          "type": "uint256"
        }
      ],
      "name": "getProductProvenance",
      "outputs": [
        {
          "components": [
            {
              "internalType": "uint256",
              "name": "timestamp",
              "type": "uint256"
            },
            {
              "internalType": "string",
              "name": "eventType",
              "type": "string"
            },
            {
              "internalType": "address",
              "name": "actorAddress",
              "type": "address"
            },
            {
              "internalType": "string",
              "name": "details",
              "type": "string"
            }
          ],
          "internalType": "struct ArtisanMarketplace.ProvenanceEvent[]",
          "name": "",
          "type": "tuple[]"
        }
      ],
      "stateMutability": "view",
      "type": "function"
    },
    {
      "inputs": [
        {
          "internalType": "address",
          "name": "owner",
          "type": "address"
        },
        {
          "internalType": "address",
          "name": "operator",
          "type": "address"
        }
      ],
      "name": "isApprovedForAll",
      "outputs": [
        {
          "internalType": "bool",
          "name": "",
          "type": "bool"
        }
      ],
      "stateMutability": "view",
      "type": "function"
    },
    {
      "inputs": [
        {
          "internalType": "address",
          "name": "artisanAddress",
          "type": "address"
        }
      ],
      "name": "isArtisanRegistered",
      "outputs": [
        {
          "internalType": "bool",
          "name": "",
          "type": "bool"
        }
      ],
      "stateMutability": "view",
      "type": "function"
    },
    {
      "inputs": [],
      "name": "name",
      "outputs": [
        {
          "internalType": "string",
          "name": "",
          "type": "string"
        }
      ],
      "stateMutability": "view",
      "type": "function"
    },
    {
      "inputs": [],
      "name": "owner",
      "outputs": [
        {
          "internalType": "address",
          "name": "",
          "type": "address"
        }
      ],
      "stateMutability": "view",
      "type": "function"
    },
    {
      "inputs": [
        {
          "internalType": "uint256",
          "name": "tokenId",
          "type": "uint256"
        }
      ],
      "name": "ownerOf",
      "outputs": [
        {
          "internalType": "address",
          "name": "",
          "type": "address"
        }
      ],
      "stateMutability": "view",
      "type": "function"
    },
    {
      "inputs": [
        {
          "internalType": "uint256",
          "name": "",
          "type": "uint256"
        },
        {
          "internalType": "uint256",
          "name": "",
          "type": "uint256"
        }
      ],
      "name": "productProvenance",
      "outputs": [
        {
          "internalType": "uint256",
          "name": "timestamp",
          "type": "uint256"
        },
        {
          "internalType": "string",
          "name": "eventType",
          "type": "string"
        },
        {
          "internalType": "address",
          "name": "actorAddress",
          "type": "address"
        },
        {
          "internalType": "string",
          "name": "details",
          "type": "string"
        }
      ],
      "stateMutability": "view",
      "type": "function"
    },
    {
      "inputs": [
        {
          "internalType": "uint256",
          "name": "",
          "type": "uint256"
        }
      ],
      "name": "products",
      "outputs": [
        {
          "internalType": "uint256",
          "name": "tokenId",
          "type": "uint256"
        },
        {
          "internalType": "string",
          "name": "name",
          "type": "string"
        },
        {
          "internalType": "string",
          "name": "description",
          "type": "string"
        },
        {
          "internalType": "string",
          "name": "artisanId",
          "type": "string"
        },
        {
          "internalType": "uint256",
          "name": "creationDate",
          "type": "uint256"
        },
        {
          "internalType": "string",
          "name": "imageUrl",
          "type": "string"
        },
        {
          "internalType": "uint256",
          "name": "price",
          "type": "uint256"
        },
        {
          "internalType": "bool",
          "name": "isVerified",
          "type": "bool"
        },
        {
          "internalType": "bool",
          "name": "isSold",
          "type": "bool"
        },
        {
          "internalType": "address",
          "name": "ownerAddress",
          "type": "address"
        }
      ],
      "stateMutability": "view",
      "type": "function"
    },
    {
      "inputs": [
        {
          "internalType": "uint256",
          "name": "tokenId",
          "type": "uint256"
        }
      ],
      "name": "purchaseProduct",
      "outputs": [],
      "stateMutability": "payable",
      "type": "function"
    },
    {
      "inputs": [
        {
          "internalType": "string",
          "name": "id",
          "type": "string"
        },
        {
          "internalType": "string",
          "name": "name",
          "type": "string"
        },
        {
          "internalType": "string",
          "name": "bio",
          "type": "string"
        },
        {
          "internalType": "string",
          "name": "profileImage",
          "type": "string"
        }
      ],
      "name": "registerArtisan",
      "outputs": [],
      "stateMutability": "nonpayable",
      "type": "function"
    },
    {
      "inputs": [],
      "name": "renounceOwnership",
      "outputs": [],
      "stateMutability": "nonpayable",
      "type": "function"
    },
    {
      "inputs": [
        {
          "internalType": "address",
          "name": "from",
          "type": "address"
        },
        {
          "internalType": "address",
          "name": "to",
          "type": "address"
        },
        {
          "internalType": "uint256",
          "name": "tokenId",
          "type": "uint256"
        }
      ],
      "name": "safeTransferFrom",
      "outputs": [],
      "stateMutability": "nonpayable",
      "type": "function"
    },
    {
      "inputs": [
        {
          "internalType": "address",
          "name": "from",
          "type": "address"
        },
        {
          "internalType": "address",
          "name": "to",
          "type": "address"
        },
        {
          "internalType": "uint256",
          "name": "tokenId",
          "type": "uint256"
        },
        {
          "internalType": "bytes",
          "name": "data",
          "type": "bytes"
        }
      ],
      "name": "safeTransferFrom",
      "outputs": [],
      "stateMutability": "nonpayable",
      "type": "function"
    },
    {
      "inputs": [
        {
          "internalType": "address",
          "name": "operator",
          "type": "address"
        },
        {
          "internalType": "bool",
          "name": "approved",
          "type": "bool"
        }
      ],
      "name": "setApprovalForAll",
      "outputs": [],
      "stateMutability": "nonpayable",
      "type": "function"
    },
    {
      "inputs": [
        {
          "internalType": "bytes4",
          "name": "interfaceId",
          "type": "bytes4"
        }
      ],
      "name": "supportsInterface",
      "outputs": [
        {
          "internalType": "bool",
          "name": "",
          "type": "bool"
        }
      ],
      "stateMutability": "view",
      "type": "function"
    },
    {
      "inputs": [],
      "name": "symbol",
      "outputs": [
        {
          "internalType": "string",
          "name": "",
          "type": "string"
        }
      ],
      "stateMutability": "view",
      "type": "function"
    },
    {
      "inputs": [
        {
          "internalType": "uint256",
          "name": "tokenId",
          "type": "uint256"
        }
      ],
      "name": "tokenURI",
      "outputs": [
        {
          "internalType": "string",
          "name": "",
          "type": "string"
        }
      ],
      "stateMutability": "view",
      "type": "function"
    },
    {
      "inputs": [
        {
          "internalType": "address",
          "name": "from",
          "type": "address"
        },
        {
          "internalType": "address",
          "name": "to",
          "type": "address"
        },
        {
          "internalType": "uint256",
          "name": "tokenId",
          "type": "uint256"
        }
      ],
      "name": "transferFrom",
      "outputs": [],
      "stateMutability": "nonpayable",
      "type": "function"
    },
    {
      "inputs": [
        {
          "internalType": "address",
          "name": "newOwner",
          "type": "address"
        }
      ],
      "name": "transferOwnership",
      "outputs": [],
      "stateMutability": "nonpayable",
      "type": "function"
    },
    {
      "inputs": [
        {
          "internalType": "uint256",
          "name": "tokenId",
          "type": "uint256"
        }
      ],
      "name": "verifyProduct",
      "outputs": [],
      "stateMutability": "nonpayable",
      "type": "function"
    }
  ],
  "bytecode": "0x60806040523480156200001157600080fd5b50336040518060400160405280601581526020017f4368656e6e61694172746973616e436f6e6e65637400000000000000000000008152506040518060400160405280600381526020017f4341430000000000000000000000000000000000000000000000000000000000815250816000908162000090919062000472565b508060019081620000a2919062000472565b505050600073ffffffffffffffffffffffffffffffffffffffff168173ffffffffffffffffffffffffffffffffffffffff16036200011a5760006040517f1e4fbdf70000000000000000000000000000000000000000000000000000000081526004016200011191906200059e565b60405180910390fd5b6200012b816200013260201b60201c565b50620005bb565b6000600760009054906101000a900473ffffffffffffffffffffffffffffffffffffffff16905081600760006101000a81548173ffffffffffffffffffffffffffffffffffffffff021916908373ffffffffffffffffffffffffffffffffffffffff1602179055508173ffffffffffffffffffffffffffffffffffffffff168173ffffffffffffffffffffffffffffffffffffffff167f8be0079c531659141344cd1fd0a4f28419497f9722a3daafe3b4186f6b6457e060405160405180910390a35050565b600081519050919050565b7f4e487b7100000000000000000000000000000000000000000000000000000000600052604160045260246000fd5b7f4e487b7100000000000000000000000000000000000000000000000000000000600052602260045260246000fd5b600060028204905060018216806200027a57607f821691505b60208210810362000290576200028f62000232565b5b50919050565b60008190508160005260206000209050919050565b60006020601f8301049050919050565b600082821b905092915050565b600060088302620002fa7fffffffffffffffffffffffffffffffffffffffffffffffffffffffffffffffff82620002bb565b620003068683620002bb565b95508019841693508086168417925050509392505050565b6000819050919050565b6000819050919050565b6000620003536200034d62000347846200031e565b62000328565b6200031e565b9050919050565b6000819050919050565b6200036f8362000332565b620003876200037e826200035a565b848454620002c8565b825550505050565b600090565b6200039e6200038f565b620003ab81848462000364565b505050565b5b81811015620003d357620003c760008262000394565b600181019050620003b1565b5050565b601f8211156200042257620003ec8162000296565b620003f784620002ab565b8101602085101562000407578190505b6200041f6200041685620002ab565b830182620003b0565b50505b505050565b600082821c905092915050565b6000620004476000198460080262000427565b1980831691505092915050565b600062000462838362000434565b9150826002028217905092915050565b6200047d82620001f8565b67ffffffffffffffff81111562000499576200049862000203565b5b620004a5825462000261565b620004b2828285620003d7565b600060209050601f831160018114620004ea5760008415620004d5578287015190505b620004e1858262000454565b86555062000551565b601f198416620004fa8662000296565b60005b828110156200052457848901518255600182019150602085019450602081019050620004fd565b8683101562000544578489015162000540601f89168262000434565b8355505b6001600288020188555050505b505050505050565b600073ffffffffffffffffffffffffffffffffffffffff82169050919050565b6000620005868262000559565b9050919050565b620005988162000579565b82525050565b6000602082019050620005b560008301846200058d565b92915050565b61530e80620005cb6000396000f3fe6080604052600436106101b75760003560e01c8063715018a6116100ec578063b88d4fde1161008a578063cf259d6011610064578063cf259d6014610677578063e985e9c5146106b8578063ea232096146106f5578063f2fde38b14610732576101b7565b8063b88d4fde146105d4578063c87b56dd146105fd578063cc844e151461063a576101b7565b80638da5cb5b116100c65780638da5cb5b1461051857806395d89b41146105435780639dc62f151461056e578063a22cb465146105ab576101b7565b8063715018a61461047b5780637acc0b201461049257806380d256a1146104d8576101b7565b806338e76a03116101595780635235b3b1116101335780635235b3b11461039b578063524e8462146103d85780636352211e1461040157806370a082311461043e576101b7565b806338e76a031461032d5780633f3339bd1461034957806342842e0e14610372576101b7565b8063095ea7b311610195578063095ea7b314610261578063129f52911461028a57806323b872dd146102c757806336a8b771146102f0576101b7565b806301ffc9a7146101bc57806306fdde03146101f9578063081812fc14610224575b600080fd5b3480156101c857600080fd5b506101e360048036038101906101de9190613bca565b61075b565b6040516101f09190613c12565b60405180910390f35b34801561020557600080fd5b5061020e6107bc565b60405161021b9190613cbd565b60405180910390f35b34801561023057600080fd5b5061024b60048036038101906102469190613d15565b61084e565b6040516102589190613d83565b60405180910390f35b34801561026d57600080fd5b5061028860048036038101906102839190613dca565b61086a565b005b34801561029657600080fd5b506102b160048036038101906102ac9190613f3f565b610880565b6040516102be9190613d83565b60405180910390f35b3480156102d357600080fd5b506102ee60048036038101906102e99190613f88565b6108c9565b005b3480156102fc57600080fd5b5061031760048036038101906103129190613fdb565b6109cb565b60405161032491906140ec565b60405180910390f35b61034760048036038101906103429190613d15565b610c87565b005b34801561035557600080fd5b50610370600480360381019061036b919061410e565b610f59565b005b34801561037e57600080fd5b5061039960048036038101906103949190613f88565b61122d565b005b3480156103a757600080fd5b506103c260048036038101906103bd91906142cb565b61124d565b6040516103cf91906143f3565b60405180910390f35b3480156103e457600080fd5b506103ff60048036038101906103fa9190613d15565b611632565b005b34801561040d57600080fd5b5061042860048036038101906104239190613d15565b61170d565b6040516104359190613d83565b60405180910390f35b34801561044a57600080fd5b5061046560048036038101906104609190613fdb565b61171f565b60405161047291906143f3565b60405180910390f35b34801561048757600080fd5b506104906117d9565b005b34801561049e57600080fd5b506104b960048036038101906104b49190613d15565b6117ed565b6040516104cf9a9998979695949392919061440e565b60405180910390f35b3480156104e457600080fd5b506104ff60048036038101906104fa91906144c6565b611a9b565b60405161050f9493929190614506565b60405180910390f35b34801561052457600080fd5b5061052d611c18565b60405161053a9190613d83565b60405180910390f35b34801561054f57600080fd5b50610558611c42565b6040516105659190613cbd565b60405180910390f35b34801561057a57600080fd5b5061059560048036038101906105909190613f3f565b611cd4565b6040516105a291906140ec565b60405180910390f35b3480156105b757600080fd5b506105d260048036038101906105cd9190614585565b612043565b005b3480156105e057600080fd5b506105fb60048036038101906105f69190614666565b612059565b005b34801561060957600080fd5b50610624600480360381019061061f9190613d15565b61207e565b6040516106319190613cbd565b60405180910390f35b34801561064657600080fd5b50610661600480360381019061065c9190613d15565b612191565b60405161066e9190614833565b60405180910390f35b34801561068357600080fd5b5061069e60048036038101906106999190613fdb565b612387565b6040516106af959493929190614855565b60405180910390f35b3480156106c457600080fd5b506106df60048036038101906106da91906148c4565b6125ea565b6040516106ec9190613c12565b60405180910390f35b34801561070157600080fd5b5061071c60048036038101906107179190613fdb565b61267e565b6040516107299190613c12565b60405180910390f35b34801561073e57600080fd5b5061075960048036038101906107549190613fdb565b6126d7565b005b6000634906490660e01b7bffffffffffffffffffffffffffffffffffffffffffffffffffffffff1916827bffffffffffffffffffffffffffffffffffffffffffffffffffffffff191614806107b557506107b48261275d565b5b9050919050565b6060600080546107cb90614933565b80601f01602080910402602001604051908101604052809291908181526020018280546107f790614933565b80156108445780601f1061081957610100808354040283529160200191610844565b820191906000526020600020905b81548152906001019060200180831161082757829003601f168201915b5050505050905090565b60006108598261283f565b50610863826128c7565b9050919050565b61087c8282610877612904565b61290c565b5050565b600c818051602081018201805184825260208301602085012081835280955050505050506000915054906101000a900473ffffffffffffffffffffffffffffffffffffffff1681565b600073ffffffffffffffffffffffffffffffffffffffff168273ffffffffffffffffffffffffffffffffffffffff160361093b5760006040517f64a0ae920000000000000000000000000000000000000000000000000000000081526004016109329190613d83565b60405180910390fd5b600061094f838361094a612904565b61291e565b90508373ffffffffffffffffffffffffffffffffffffffff168173ffffffffffffffffffffffffffffffffffffffff16146109c5578382826040517f64283d7b0000000000000000000000000000000000000000000000000000000081526004016109bc93929190614964565b60405180910390fd5b50505050565b6109d3613a53565b600960008373ffffffffffffffffffffffffffffffffffffffff1673ffffffffffffffffffffffffffffffffffffffff1681526020019081526020016000206040518060a0016040529081600082018054610a2d90614933565b80601f0160208091040260200160405190810160405280929190818152602001828054610a5990614933565b8015610aa65780601f10610a7b57610100808354040283529160200191610aa6565b820191906000526020600020905b815481529060010190602001808311610a8957829003601f168201915b50505050508152602001600182018054610abf90614933565b80601f0160208091040260200160405190810160405280929190818152602001828054610aeb90614933565b8015610b385780601f10610b0d57610100808354040283529160200191610b38565b820191906000526020600020905b815481529060010190602001808311610b1b57829003601f168201915b50505050508152602001600282018054610b5190614933565b80601f0160208091040260200160405190810160405280929190818152602001828054610b7d90614933565b8015610bca5780601f10610b9f57610100808354040283529160200191610bca565b820191906000526020600020905b815481529060010190602001808311610bad57829003601f168201915b50505050508152602001600382018054610be390614933565b80601f0160208091040260200160405190810160405280929190818152602001828054610c0f90614933565b8015610c5c5780601f10610c3157610100808354040283529160200191610c5c565b820191906000526020600020905b815481529060010190602001808311610c3f57829003601f168201915b505050505081526020016004820160009054906101000a900460ff1615151515815250509050919050565b6000600a600083815260200190815260200160002090508060080160019054906101000a900460ff1615610cf0576040517f08c379a0000000000000000000000000000000000000000000000000000000008152600401610ce7906149e7565b60405180910390fd5b8060070154341015610d37576040517f08c379a0000000000000000000000000000000000000000000000000000000008152600401610d2e90614a53565b60405180910390fd5b60008160080160029054906101000a900473ffffffffffffffffffffffffffffffffffffffff16905060018260080160016101000a81548160ff021916908315150217905550338260080160026101000a81548173ffffffffffffffffffffffffffffffffffffffff021916908373ffffffffffffffffffffffffffffffffffffffff160217905550610dcb813385612b38565b610e41836040518060400160405280600481526020017f536f6c6400000000000000000000000000000000000000000000000000000000815250336040518060400160405280601181526020017f50726f6475637420707572636861736564000000000000000000000000000000815250612ca5565b60008173ffffffffffffffffffffffffffffffffffffffff1634604051610e6790614aa4565b60006040518083038185875af1925050503d8060008114610ea4576040519150601f19603f3d011682016040523d82523d6000602084013e610ea9565b606091505b5050905080610eed576040517f08c379a0000000000000000000000000000000000000000000000000000000008152600401610ee490614b05565b60405180910390fd5b3373ffffffffffffffffffffffffffffffffffffffff168273ffffffffffffffffffffffffffffffffffffffff16857fa02e46fc9bbd3e1138787bc1dc117ae0b9a5a3745ea30b0ab673d79d9073902934604051610f4b91906143f3565b60405180910390a450505050565b600960003373ffffffffffffffffffffffffffffffffffffffff1673ffffffffffffffffffffffffffffffffffffffff16815260200190815260200160002060040160009054906101000a900460ff1615610fe9576040517f08c379a0000000000000000000000000000000000000000000000000000000008152600401610fe090614b71565b60405180910390fd5b600073ffffffffffffffffffffffffffffffffffffffff16600c856040516110119190614bcd565b908152602001604051809103902060009054906101000a900473ffffffffffffffffffffffffffffffffffffffff1673ffffffffffffffffffffffffffffffffffffffff1614611096576040517f08c379a000000000000000000000000000000000000000000000000000000000815260040161108d90614c30565b60405180910390fd5b6040518060a0016040528085815260200184815260200183815260200182815260200160011515815250600960003373ffffffffffffffffffffffffffffffffffffffff1673ffffffffffffffffffffffffffffffffffffffff16815260200190815260200160002060008201518160000190816111149190614dfc565b50602082015181600101908161112a9190614dfc565b5060408201518160020190816111409190614dfc565b5060608201518160030190816111569190614dfc565b5060808201518160040160006101000a81548160ff02191690831515021790555090505033600c8560405161118b9190614bcd565b908152602001604051809103902060006101000a81548173ffffffffffffffffffffffffffffffffffffffff021916908373ffffffffffffffffffffffffffffffffffffffff1602179055503373ffffffffffffffffffffffffffffffffffffffff167fa3b23b18c6e30bb740bf9a31d741443b1d258328c2522cc13c714d26db82ef1e858560405161121f929190614ece565b60405180910390a250505050565b61124883838360405180602001604052806000815250612059565b505050565b6000600960003373ffffffffffffffffffffffffffffffffffffffff1673ffffffffffffffffffffffffffffffffffffffff16815260200190815260200160002060040160009054906101000a900460ff166112de576040517f08c379a00000000000000000000000000000000000000000000000000000000081526004016112d590614f77565b60405180910390fd5b6000600860008154809291906112f390614fc6565b9190505590506113033382612ddd565b61130d8184612ed6565b604051806101600160405280828152602001898152602001888152602001878152602001600960003373ffffffffffffffffffffffffffffffffffffffff1673ffffffffffffffffffffffffffffffffffffffff168152602001908152602001600020600001805461137e90614933565b80601f01602080910402602001604051908101604052809291908181526020018280546113aa90614933565b80156113f75780601f106113cc576101008083540402835291602001916113f7565b820191906000526020600020905b8154815290600101906020018083116113da57829003601f168201915b505050505081526020014281526020018681526020018581526020016000151581526020016000151581526020013373ffffffffffffffffffffffffffffffffffffffff16815250600a60008381526020019081526020016000206000820151816000015560208201518160010190816114719190614dfc565b5060408201518160020190816114879190614dfc565b5060608201518160030190805190602001906114a4929190613a84565b5060808201518160040190816114ba9190614dfc565b5060a0820151816005015560c08201518160060190816114da9190614dfc565b5060e082015181600701556101008201518160080160006101000a81548160ff0219169083151502179055506101208201518160080160016101000a81548160ff0219169083151502179055506101408201518160080160026101000a81548173ffffffffffffffffffffffffffffffffffffffff021916908373ffffffffffffffffffffffffffffffffffffffff1602179055509050506115e8816040518060400160405280601281526020017f43726561746564206279204172746973616e0000000000000000000000000000815250336040518060400160405280601081526020017f496e697469616c206372656174696f6e00000000000000000000000000000000815250612ca5565b807f90934fc9dc1095f968f4207cb62e27da1da3e31653ff34cbf837b6c349ded76089338760405161161c9392919061500e565b60405180910390a2809150509695505050505050565b61163a612f32565b61164381612fb9565b611682576040517f08c379a000000000000000000000000000000000000000000000000000000000815260040161167990615098565b60405180910390fd5b6001600a600083815260200190815260200160002060080160006101000a81548160ff02191690831515021790555061170a816040518060400160405280600881526020017f5665726966696564000000000000000000000000000000000000000000000000815250336040518060600160405280602581526020016152b460259139612ca5565b50565b60006117188261283f565b9050919050565b60008073ffffffffffffffffffffffffffffffffffffffff168273ffffffffffffffffffffffffffffffffffffffff16036117925760006040517f89c62b640000000000000000000000000000000000000000000000000000000081526004016117899190613d83565b60405180910390fd5b600360008373ffffffffffffffffffffffffffffffffffffffff1673ffffffffffffffffffffffffffffffffffffffff168152602001908152602001600020549050919050565b6117e1612f32565b6117eb6000612fdb565b565b600a60205280600052604060002060009150905080600001549080600101805461181690614933565b80601f016020809104026020016040519081016040528092919081815260200182805461184290614933565b801561188f5780601f106118645761010080835404028352916020019161188f565b820191906000526020600020905b81548152906001019060200180831161187257829003601f168201915b5050505050908060020180546118a490614933565b80601f01602080910402602001604051908101604052809291908181526020018280546118d090614933565b801561191d5780601f106118f25761010080835404028352916020019161191d565b820191906000526020600020905b81548152906001019060200180831161190057829003601f168201915b50505050509080600401805461193290614933565b80601f016020809104026020016040519081016040528092919081815260200182805461195e90614933565b80156119ab5780601f10611980576101008083540402835291602001916119ab565b820191906000526020600020905b81548152906001019060200180831161198e57829003601f168201915b5050505050908060050154908060060180546119c690614933565b80601f01602080910402602001604051908101604052809291908181526020018280546119f290614933565b8015611a3f5780601f10611a1457610100808354040283529160200191611a3f565b820191906000526020600020905b815481529060010190602001808311611a2257829003601f168201915b5050505050908060070154908060080160009054906101000a900460ff16908060080160019054906101000a900460ff16908060080160029054906101000a900473ffffffffffffffffffffffffffffffffffffffff1690508a565b600b6020528160005260406000208181548110611ab757600080fd5b906000526020600020906004020160009150915050806000015490806001018054611ae190614933565b80601f0160208091040260200160405190810160405280929190818152602001828054611b0d90614933565b8015611b5a5780601f10611b2f57610100808354040283529160200191611b5a565b820191906000526020600020905b815481529060010190602001808311611b3d57829003601f168201915b5050505050908060020160009054906101000a900473ffffffffffffffffffffffffffffffffffffffff1690806003018054611b9590614933565b80601f0160208091040260200160405190810160405280929190818152602001828054611bc190614933565b8015611c0e5780601f10611be357610100808354040283529160200191611c0e565b820191906000526020600020905b815481529060010190602001808311611bf157829003601f168201915b5050505050905084565b6000600760009054906101000a900473ffffffffffffffffffffffffffffffffffffffff16905090565b606060018054611c5190614933565b80601f0160208091040260200160405190810160405280929190818152602001828054611c7d90614933565b8015611cca5780601f10611c9f57610100808354040283529160200191611cca565b820191906000526020600020905b815481529060010190602001808311611cad57829003601f168201915b5050505050905090565b611cdc613a53565b6000600c83604051611cee9190614bcd565b908152602001604051809103902060009054906101000a900473ffffffffffffffffffffffffffffffffffffffff169050600073ffffffffffffffffffffffffffffffffffffffff168173ffffffffffffffffffffffffffffffffffffffff1603611d8e576040517f08c379a0000000000000000000000000000000000000000000000000000000008152600401611d8590615104565b60405180910390fd5b600960008273ffffffffffffffffffffffffffffffffffffffff1673ffffffffffffffffffffffffffffffffffffffff1681526020019081526020016000206040518060a0016040529081600082018054611de890614933565b80601f0160208091040260200160405190810160405280929190818152602001828054611e1490614933565b8015611e615780601f10611e3657610100808354040283529160200191611e61565b820191906000526020600020905b815481529060010190602001808311611e4457829003601f168201915b50505050508152602001600182018054611e7a90614933565b80601f0160208091040260200160405190810160405280929190818152602001828054611ea690614933565b8015611ef35780601f10611ec857610100808354040283529160200191611ef3565b820191906000526020600020905b815481529060010190602001808311611ed657829003601f168201915b50505050508152602001600282018054611f0c90614933565b80601f0160208091040260200160405190810160405280929190818152602001828054611f3890614933565b8015611f855780601f10611f5a57610100808354040283529160200191611f85565b820191906000526020600020905b815481529060010190602001808311611f6857829003601f168201915b50505050508152602001600382018054611f9e90614933565b80601f0160208091040260200160405190810160405280929190818152602001828054611fca90614933565b80156120175780601f10611fec57610100808354040283529160200191612017565b820191906000526020600020905b815481529060010190602001808311611ffa57829003601f168201915b505050505081526020016004820160009054906101000a900460ff161515151581525050915050919050565b61205561204e612904565b83836130a1565b5050565b6120648484846108c9565b61207861206f612904565b85858585613210565b50505050565b60606120898261283f565b5060006006600084815260200190815260200160002080546120aa90614933565b80601f01602080910402602001604051908101604052809291908181526020018280546120d690614933565b80156121235780601f106120f857610100808354040283529160200191612123565b820191906000526020600020905b81548152906001019060200180831161210657829003601f168201915b5050505050905060006121346133c1565b9050600081510361214957819250505061218c565b60008251111561217e578082604051602001612166929190615124565b6040516020818303038152906040529250505061218c565b612187846133d8565b925050505b919050565b6060600b6000838152602001908152602001600020805480602002602001604051908101604052809291908181526020016000905b8282101561237c57838290600052602060002090600402016040518060800160405290816000820154815260200160018201805461220390614933565b80601f016020809104026020016040519081016040528092919081815260200182805461222f90614933565b801561227c5780601f106122515761010080835404028352916020019161227c565b820191906000526020600020905b81548152906001019060200180831161225f57829003601f168201915b505050505081526020016002820160009054906101000a900473ffffffffffffffffffffffffffffffffffffffff1673ffffffffffffffffffffffffffffffffffffffff1673ffffffffffffffffffffffffffffffffffffffff1681526020016003820180546122eb90614933565b80601f016020809104026020016040519081016040528092919081815260200182805461231790614933565b80156123645780601f1061233957610100808354040283529160200191612364565b820191906000526020600020905b81548152906001019060200180831161234757829003601f168201915b505050505081525050815260200190600101906121c6565b505050509050919050565b60096020528060005260406000206000915090508060000180546123aa90614933565b80601f01602080910402602001604051908101604052809291908181526020018280546123d690614933565b80156124235780601f106123f857610100808354040283529160200191612423565b820191906000526020600020905b81548152906001019060200180831161240657829003601f168201915b50505050509080600101805461243890614933565b80601f016020809104026020016040519081016040528092919081815260200182805461246490614933565b80156124b15780601f10612486576101008083540402835291602001916124b1565b820191906000526020600020905b81548152906001019060200180831161249457829003601f168201915b5050505050908060020180546124c690614933565b80601f01602080910402602001604051908101604052809291908181526020018280546124f290614933565b801561253f5780601f106125145761010080835404028352916020019161253f565b820191906000526020600020905b81548152906001019060200180831161252257829003601f168201915b50505050509080600301805461255490614933565b80601f016020809104026020016040519081016040528092919081815260200182805461258090614933565b80156125cd5780601f106125a2576101008083540402835291602001916125cd565b820191906000526020600020905b8154815290600101906020018083116125b057829003601f168201915b5050505050908060040160009054906101000a900460ff16905085565b6000600560008473ffffffffffffffffffffffffffffffffffffffff1673ffffffffffffffffffffffffffffffffffffffff16815260200190815260200160002060008373ffffffffffffffffffffffffffffffffffffffff1673ffffffffffffffffffffffffffffffffffffffff16815260200190815260200160002060009054906101000a900460ff16905092915050565b6000600960008373ffffffffffffffffffffffffffffffffffffffff1673ffffffffffffffffffffffffffffffffffffffff16815260200190815260200160002060040160009054906101000a900460ff169050919050565b6126df612f32565b600073ffffffffffffffffffffffffffffffffffffffff168173ffffffffffffffffffffffffffffffffffffffff16036127515760006040517f1e4fbdf70000000000000000000000000000000000000000000000000000000081526004016127489190613d83565b60405180910390fd5b61275a81612fdb565b50565b60007f80ac58cd000000000000000000000000000000000000000000000000000000007bffffffffffffffffffffffffffffffffffffffffffffffffffffffff1916827bffffffffffffffffffffffffffffffffffffffffffffffffffffffff1916148061282857507f5b5e139f000000000000000000000000000000000000000000000000000000007bffffffffffffffffffffffffffffffffffffffffffffffffffffffff1916827bffffffffffffffffffffffffffffffffffffffffffffffffffffffff1916145b80612838575061283782613441565b5b9050919050565b60008061284b836134ab565b9050600073ffffffffffffffffffffffffffffffffffffffff168173ffffffffffffffffffffffffffffffffffffffff16036128be57826040517f7e2732890000000000000000000000000000000000000000000000000000000081526004016128b591906143f3565b60405180910390fd5b80915050919050565b60006004600083815260200190815260200160002060009054906101000a900473ffffffffffffffffffffffffffffffffffffffff169050919050565b600033905090565b61291983838360016134e8565b505050565b60008061292a846134ab565b9050600073ffffffffffffffffffffffffffffffffffffffff168373ffffffffffffffffffffffffffffffffffffffff161461296c5761296b8184866136ad565b5b600073ffffffffffffffffffffffffffffffffffffffff168173ffffffffffffffffffffffffffffffffffffffff16146129fd576129ae6000856000806134e8565b6001600360008373ffffffffffffffffffffffffffffffffffffffff1673ffffffffffffffffffffffffffffffffffffffff168152602001908152602001600020600082825403925050819055505b600073ffffffffffffffffffffffffffffffffffffffff168573ffffffffffffffffffffffffffffffffffffffff1614612a80576001600360008773ffffffffffffffffffffffffffffffffffffffff1673ffffffffffffffffffffffffffffffffffffffff168152602001908152602001600020600082825401925050819055505b846002600086815260200190815260200160002060006101000a81548173ffffffffffffffffffffffffffffffffffffffff021916908373ffffffffffffffffffffffffffffffffffffffff160217905550838573ffffffffffffffffffffffffffffffffffffffff168273ffffffffffffffffffffffffffffffffffffffff167fddf252ad1be2c89b69c2b068fc378daa952ba7f163c4a11628f55a4df523b3ef60405160405180910390a4809150509392505050565b600073ffffffffffffffffffffffffffffffffffffffff168273ffffffffffffffffffffffffffffffffffffffff1603612baa5760006040517f64a0ae92000000000000000000000000000000000000000000000000000000008152600401612ba19190613d83565b60405180910390fd5b6000612bb88383600061291e565b9050600073ffffffffffffffffffffffffffffffffffffffff168173ffffffffffffffffffffffffffffffffffffffff1603612c2b57816040517f7e273289000000000000000000000000000000000000000000000000000000008152600401612c2291906143f3565b60405180910390fd5b8373ffffffffffffffffffffffffffffffffffffffff168173ffffffffffffffffffffffffffffffffffffffff1614612c9f578382826040517f64283d7b000000000000000000000000000000000000000000000000000000008152600401612c9693929190614964565b60405180910390fd5b50505050565b600060405180608001604052804281526020018581526020018473ffffffffffffffffffffffffffffffffffffffff168152602001838152509050600b6000868152602001908152602001600020819080600181540180825580915050600190039060005260206000209060040201600090919091909150600082015181600001556020820151816001019081612d3c9190614dfc565b5060408201518160020160006101000a81548173ffffffffffffffffffffffffffffffffffffffff021916908373ffffffffffffffffffffffffffffffffffffffff1602179055506060820151816003019081612d999190614dfc565b505050847fb9e55895d4efd9166355272d5d916c5d3e9dd112a9874306bd7a94c02b41cb118585604051612dce929190615148565b60405180910390a25050505050565b600073ffffffffffffffffffffffffffffffffffffffff168273ffffffffffffffffffffffffffffffffffffffff1603612e4f5760006040517f64a0ae92000000000000000000000000000000000000000000000000000000008152600401612e469190613d83565b60405180910390fd5b6000612e5d8383600061291e565b9050600073ffffffffffffffffffffffffffffffffffffffff168173ffffffffffffffffffffffffffffffffffffffff1614612ed15760006040517f73c6ac6e000000000000000000000000000000000000000000000000000000008152600401612ec89190613d83565b60405180910390fd5b505050565b80600660008481526020019081526020016000209081612ef69190614dfc565b507ff8e1a15aba9398e019f0b49df1a4fde98ee17ae345cb5f6b5e2c27f5033e8ce782604051612f2691906143f3565b60405180910390a15050565b612f3a612904565b73ffffffffffffffffffffffffffffffffffffffff16612f58611c18565b73ffffffffffffffffffffffffffffffffffffffff1614612fb757612f7b612904565b6040517f118cdaa7000000000000000000000000000000000000000000000000000000008152600401612fae9190613d83565b60405180910390fd5b565b600081600a600084815260200190815260200160002060000154149050919050565b6000600760009054906101000a900473ffffffffffffffffffffffffffffffffffffffff16905081600760006101000a81548173ffffffffffffffffffffffffffffffffffffffff021916908373ffffffffffffffffffffffffffffffffffffffff1602179055508173ffffffffffffffffffffffffffffffffffffffff168173ffffffffffffffffffffffffffffffffffffffff167f8be0079c531659141344cd1fd0a4f28419497f9722a3daafe3b4186f6b6457e060405160405180910390a35050565b600073ffffffffffffffffffffffffffffffffffffffff168273ffffffffffffffffffffffffffffffffffffffff160361311257816040517f5b08ba180000000000000000000000000000000000000000000000000000000081526004016131099190613d83565b60405180910390fd5b80600560008573ffffffffffffffffffffffffffffffffffffffff1673ffffffffffffffffffffffffffffffffffffffff16815260200190815260200160002060008473ffffffffffffffffffffffffffffffffffffffff1673ffffffffffffffffffffffffffffffffffffffff16815260200190815260200160002060006101000a81548160ff0219169083151502179055508173ffffffffffffffffffffffffffffffffffffffff168373ffffffffffffffffffffffffffffffffffffffff167f17307eab39ab6107e8899845ad3d59bd9653f200f220920489ca2b5937696c31836040516132039190613c12565b60405180910390a3505050565b60008373ffffffffffffffffffffffffffffffffffffffff163b11156133ba578273ffffffffffffffffffffffffffffffffffffffff1663150b7a02868685856040518563ffffffff1660e01b815260040161326f94939291906151cd565b6020604051808303816000875af19250505080156132ab57506040513d601f19601f820116820180604052508101906132a8919061522e565b60015b61332f573d80600081146132db576040519150601f19603f3d011682016040523d82523d6000602084013e6132e0565b606091505b50600081510361332757836040517f64a0ae9200000000000000000000000000000000000000000000000000000000815260040161331e9190613d83565b60405180910390fd5b805181602001fd5b63150b7a0260e01b7bffffffffffffffffffffffffffffffffffffffffffffffffffffffff1916817bffffffffffffffffffffffffffffffffffffffffffffffffffffffff1916146133b857836040517f64a0ae920000000000000000000000000000000000000000000000000000000081526004016133af9190613d83565b60405180910390fd5b505b5050505050565b606060405180602001604052806000815250905090565b60606133e38261283f565b5060006133ee6133c1565b9050600081511161340e5760405180602001604052806000815250613439565b8061341884613771565b604051602001613429929190615124565b6040516020818303038152906040525b915050919050565b60007f01ffc9a7000000000000000000000000000000000000000000000000000000007bffffffffffffffffffffffffffffffffffffffffffffffffffffffff1916827bffffffffffffffffffffffffffffffffffffffffffffffffffffffff1916149050919050565b60006002600083815260200190815260200160002060009054906101000a900473ffffffffffffffffffffffffffffffffffffffff169050919050565b80806135215750600073ffffffffffffffffffffffffffffffffffffffff168273ffffffffffffffffffffffffffffffffffffffff1614155b156136555760006135318461283f565b9050600073ffffffffffffffffffffffffffffffffffffffff168373ffffffffffffffffffffffffffffffffffffffff161415801561359c57508273ffffffffffffffffffffffffffffffffffffffff168173ffffffffffffffffffffffffffffffffffffffff1614155b80156135af57506135ad81846125ea565b155b156135f157826040517fa9fbf51f0000000000000000000000000000000000000000000000000000000081526004016135e89190613d83565b60405180910390fd5b811561365357838573ffffffffffffffffffffffffffffffffffffffff168273ffffffffffffffffffffffffffffffffffffffff167f8c5be1e5ebec7d5bd14f71427d1e84f3dd0314c0f7b2291e5b200ac8c7c3b92560405160405180910390a45b505b836004600085815260200190815260200160002060006101000a81548173ffffffffffffffffffffffffffffffffffffffff021916908373ffffffffffffffffffffffffffffffffffffffff16021790555050505050565b6136b883838361383f565b61376c57600073ffffffffffffffffffffffffffffffffffffffff168373ffffffffffffffffffffffffffffffffffffffff160361372d57806040517f7e27328900000000000000000000000000000000000000000000000000000000815260040161372491906143f3565b60405180910390fd5b81816040517f177e802f00000000000000000000000000000000000000000000000000000000815260040161376392919061525b565b60405180910390fd5b505050565b60606000600161378084613900565b01905060008167ffffffffffffffff81111561379f5761379e613e14565b5b6040519080825280601f01601f1916602001820160405280156137d15781602001600182028036833780820191505090505b509050600082602001820190505b600115613834578080600190039150507f3031323334353637383961626364656600000000000000000000000000000000600a86061a8153600a858161382857613827615284565b5b049450600085036137df575b819350505050919050565b60008073ffffffffffffffffffffffffffffffffffffffff168373ffffffffffffffffffffffffffffffffffffffff16141580156138f757508273ffffffffffffffffffffffffffffffffffffffff168473ffffffffffffffffffffffffffffffffffffffff1614806138b857506138b784846125ea565b5b806138f657508273ffffffffffffffffffffffffffffffffffffffff166138de836128c7565b73ffffffffffffffffffffffffffffffffffffffff16145b5b90509392505050565b600080600090507a184f03e93ff9f4daa797ed6e38ed64bf6a1f010000000000000000831061395e577a184f03e93ff9f4daa797ed6e38ed64bf6a1f010000000000000000838161395457613953615284565b5b0492506040810190505b6d04ee2d6d415b85acef8100000000831061399b576d04ee2d6d415b85acef8100000000838161399157613990615284565b5b0492506020810190505b662386f26fc1000083106139ca57662386f26fc1000083816139c0576139bf615284565b5b0492506010810190505b6305f5e10083106139f3576305f5e10083816139e9576139e8615284565b5b0492506008810190505b6127108310613a18576127108381613a0e57613a0d615284565b5b0492506004810190505b60648310613a3b5760648381613a3157613a30615284565b5b0492506002810190505b600a8310613a4a576001810190505b80915050919050565b6040518060a00160405280606081526020016060815260200160608152602001606081526020016000151581525090565b828054828255906000526020600020908101928215613acc579160200282015b82811115613acb578251829081613abb9190614dfc565b5091602001919060010190613aa4565b5b509050613ad99190613add565b5090565b5b80821115613afd5760008181613af49190613b01565b50600101613ade565b5090565b508054613b0d90614933565b6000825580601f10613b1f5750613b3e565b601f016020900490600052602060002090810190613b3d9190613b41565b5b50565b5b80821115613b5a576000816000905550600101613b42565b5090565b6000604051905090565b600080fd5b600080fd5b60007fffffffff0000000000000000000000000000000000000000000000000000000082169050919050565b613ba781613b72565b8114613bb257600080fd5b50565b600081359050613bc481613b9e565b92915050565b600060208284031215613be057613bdf613b68565b5b6000613bee84828501613bb5565b91505092915050565b60008115159050919050565b613c0c81613bf7565b82525050565b6000602082019050613c276000830184613c03565b92915050565b600081519050919050565b600082825260208201905092915050565b60005b83811015613c67578082015181840152602081019050613c4c565b60008484015250505050565b6000601f19601f8301169050919050565b6000613c8f82613c2d565b613c998185613c38565b9350613ca9818560208601613c49565b613cb281613c73565b840191505092915050565b60006020820190508181036000830152613cd78184613c84565b905092915050565b6000819050919050565b613cf281613cdf565b8114613cfd57600080fd5b50565b600081359050613d0f81613ce9565b92915050565b600060208284031215613d2b57613d2a613b68565b5b6000613d3984828501613d00565b91505092915050565b600073ffffffffffffffffffffffffffffffffffffffff82169050919050565b6000613d6d82613d42565b9050919050565b613d7d81613d62565b82525050565b6000602082019050613d986000830184613d74565b92915050565b613da781613d62565b8114613db257600080fd5b50565b600081359050613dc481613d9e565b92915050565b60008060408385031215613de157613de0613b68565b5b6000613def85828601613db5565b9250506020613e0085828601613d00565b9150509250929050565b600080fd5b600080fd5b7f4e487b7100000000000000000000000000000000000000000000000000000000600052604160045260246000fd5b613e4c82613c73565b810181811067ffffffffffffffff82111715613e6b57613e6a613e14565b5b80604052505050565b6000613e7e613b5e565b9050613e8a8282613e43565b919050565b600067ffffffffffffffff821115613eaa57613ea9613e14565b5b613eb382613c73565b9050602081019050919050565b82818337600083830152505050565b6000613ee2613edd84613e8f565b613e74565b905082815260208101848484011115613efe57613efd613e0f565b5b613f09848285613ec0565b509392505050565b600082601f830112613f2657613f25613e0a565b5b8135613f36848260208601613ecf565b91505092915050565b600060208284031215613f5557613f54613b68565b5b600082013567ffffffffffffffff811115613f7357613f72613b6d565b5b613f7f84828501613f11565b91505092915050565b600080600060608486031215613fa157613fa0613b68565b5b6000613faf86828701613db5565b9350506020613fc086828701613db5565b9250506040613fd186828701613d00565b9150509250925092565b600060208284031215613ff157613ff0613b68565b5b6000613fff84828501613db5565b91505092915050565b600082825260208201905092915050565b600061402482613c2d565b61402e8185614008565b935061403e818560208601613c49565b61404781613c73565b840191505092915050565b61405b81613bf7565b82525050565b600060a083016000830151848203600086015261407e8282614019565b915050602083015184820360208601526140988282614019565b915050604083015184820360408601526140b28282614019565b915050606083015184820360608601526140cc8282614019565b91505060808301516140e16080860182614052565b508091505092915050565b600060208201905081810360008301526141068184614061565b905092915050565b6000806000806080858703121561412857614127613b68565b5b600085013567ffffffffffffffff81111561414657614145613b6d565b5b61415287828801613f11565b945050602085013567ffffffffffffffff81111561417357614172613b6d565b5b61417f87828801613f11565b935050604085013567ffffffffffffffff8111156141a05761419f613b6d565b5b6141ac87828801613f11565b925050606085013567ffffffffffffffff8111156141cd576141cc613b6d565b5b6141d987828801613f11565b91505092959194509250565b600067ffffffffffffffff821115614200576141ff613e14565b5b602082029050602081019050919050565b600080fd5b6000614229614224846141e5565b613e74565b9050808382526020820190506020840283018581111561424c5761424b614211565b5b835b8181101561429357803567ffffffffffffffff81111561427157614270613e0a565b5b80860161427e8982613f11565b8552602085019450505060208101905061424e565b5050509392505050565b600082601f8301126142b2576142b1613e0a565b5b81356142c2848260208601614216565b91505092915050565b60008060008060008060c087890312156142e8576142e7613b68565b5b600087013567ffffffffffffffff81111561430657614305613b6d565b5b61431289828a01613f11565b965050602087013567ffffffffffffffff81111561433357614332613b6d565b5b61433f89828a01613f11565b955050604087013567ffffffffffffffff8111156143605761435f613b6d565b5b61436c89828a0161429d565b945050606087013567ffffffffffffffff81111561438d5761438c613b6d565b5b61439989828a01613f11565b93505060806143aa89828a01613d00565b92505060a087013567ffffffffffffffff8111156143cb576143ca613b6d565b5b6143d789828a01613f11565b9150509295509295509295565b6143ed81613cdf565b82525050565b600060208201905061440860008301846143e4565b92915050565b600061014082019050614424600083018d6143e4565b8181036020830152614436818c613c84565b9050818103604083015261444a818b613c84565b9050818103606083015261445e818a613c84565b905061446d60808301896143e4565b81810360a083015261447f8188613c84565b905061448e60c08301876143e4565b61449b60e0830186613c03565b6144a9610100830185613c03565b6144b7610120830184613d74565b9b9a5050505050505050505050565b600080604083850312156144dd576144dc613b68565b5b60006144eb85828601613d00565b92505060206144fc85828601613d00565b9150509250929050565b600060808201905061451b60008301876143e4565b818103602083015261452d8186613c84565b905061453c6040830185613d74565b818103606083015261454e8184613c84565b905095945050505050565b61456281613bf7565b811461456d57600080fd5b50565b60008135905061457f81614559565b92915050565b6000806040838503121561459c5761459b613b68565b5b60006145aa85828601613db5565b92505060206145bb85828601614570565b9150509250929050565b600067ffffffffffffffff8211156145e0576145df613e14565b5b6145e982613c73565b9050602081019050919050565b6000614609614604846145c5565b613e74565b90508281526020810184848401111561462557614624613e0f565b5b614630848285613ec0565b509392505050565b600082601f83011261464d5761464c613e0a565b5b813561465d8482602086016145f6565b91505092915050565b600080600080608085870312156146805761467f613b68565b5b600061468e87828801613db5565b945050602061469f87828801613db5565b93505060406146b087828801613d00565b925050606085013567ffffffffffffffff8111156146d1576146d0613b6d565b5b6146dd87828801614638565b91505092959194509250565b600081519050919050565b600082825260208201905092915050565b6000819050602082019050919050565b61471e81613cdf565b82525050565b61472d81613d62565b82525050565b600060808301600083015161474b6000860182614715565b50602083015184820360208601526147638282614019565b91505060408301516147786040860182614724565b50606083015184820360608601526147908282614019565b9150508091505092915050565b60006147a98383614733565b905092915050565b6000602082019050919050565b60006147c9826146e9565b6147d381856146f4565b9350836020820285016147e585614705565b8060005b858110156148215784840389528151614802858261479d565b945061480d836147b1565b925060208a019950506001810190506147e9565b50829750879550505050505092915050565b6000602082019050818103600083015261484d81846147be565b905092915050565b600060a082019050818103600083015261486f8188613c84565b905081810360208301526148838187613c84565b905081810360408301526148978186613c84565b905081810360608301526148ab8185613c84565b90506148ba6080830184613c03565b9695505050505050565b600080604083850312156148db576148da613b68565b5b60006148e985828601613db5565b92505060206148fa85828601613db5565b9150509250929050565b7f4e487b7100000000000000000000000000000000000000000000000000000000600052602260045260246000fd5b6000600282049050600182168061494b57607f821691505b60208210810361495e5761495d614904565b5b50919050565b60006060820190506149796000830186613d74565b61498660208301856143e4565b6149936040830184613d74565b949350505050565b7f50726f6475637420616c726561647920736f6c64000000000000000000000000600082015250565b60006149d1601483613c38565b91506149dc8261499b565b602082019050919050565b60006020820190508181036000830152614a00816149c4565b9050919050565b7f496e73756666696369656e742066756e64730000000000000000000000000000600082015250565b6000614a3d601283613c38565b9150614a4882614a07565b602082019050919050565b60006020820190508181036000830152614a6c81614a30565b9050919050565b600081905092915050565b50565b6000614a8e600083614a73565b9150614a9982614a7e565b600082019050919050565b6000614aaf82614a81565b9150819050919050565b7f4661696c656420746f2073656e64204574686572000000000000000000000000600082015250565b6000614aef601483613c38565b9150614afa82614ab9565b602082019050919050565b60006020820190508181036000830152614b1e81614ae2565b9050919050565b7f4172746973616e20616c72656164792072656769737465726564000000000000600082015250565b6000614b5b601a83613c38565b9150614b6682614b25565b602082019050919050565b60006020820190508181036000830152614b8a81614b4e565b9050919050565b600081905092915050565b6000614ba782613c2d565b614bb18185614b91565b9350614bc1818560208601613c49565b80840191505092915050565b6000614bd98284614b9c565b915081905092915050565b7f4172746973616e20494420616c72656164792065786973747300000000000000600082015250565b6000614c1a601983613c38565b9150614c2582614be4565b602082019050919050565b60006020820190508181036000830152614c4981614c0d565b9050919050565b60008190508160005260206000209050919050565b60006020601f8301049050919050565b600082821b905092915050565b600060088302614cb27fffffffffffffffffffffffffffffffffffffffffffffffffffffffffffffffff82614c75565b614cbc8683614c75565b95508019841693508086168417925050509392505050565b6000819050919050565b6000614cf9614cf4614cef84613cdf565b614cd4565b613cdf565b9050919050565b6000819050919050565b614d1383614cde565b614d27614d1f82614d00565b848454614c82565b825550505050565b600090565b614d3c614d2f565b614d47818484614d0a565b505050565b5b81811015614d6b57614d60600082614d34565b600181019050614d4d565b5050565b601f821115614db057614d8181614c50565b614d8a84614c65565b81016020851015614d99578190505b614dad614da585614c65565b830182614d4c565b50505b505050565b600082821c905092915050565b6000614dd360001984600802614db5565b1980831691505092915050565b6000614dec8383614dc2565b9150826002028217905092915050565b614e0582613c2d565b67ffffffffffffffff811115614e1e57614e1d613e14565b5b614e288254614933565b614e33828285614d6f565b600060209050601f831160018114614e665760008415614e54578287015190505b614e5e8582614de0565b865550614ec6565b601f198416614e7486614c50565b60005b82811015614e9c57848901518255600182019150602085019450602081019050614e77565b86831015614eb95784890151614eb5601f891682614dc2565b8355505b6001600288020188555050505b505050505050565b60006040820190508181036000830152614ee88185613c84565b90508181036020830152614efc8184613c84565b90509392505050565b7f4f6e6c792072656769737465726564206172746973616e732063616e2063726560008201527f6174652070726f64756374730000000000000000000000000000000000000000602082015250565b6000614f61602c83613c38565b9150614f6c82614f05565b604082019050919050565b60006020820190508181036000830152614f9081614f54565b9050919050565b7f4e487b7100000000000000000000000000000000000000000000000000000000600052601160045260246000fd5b6000614fd182613cdf565b91507fffffffffffffffffffffffffffffffffffffffffffffffffffffffffffffffff820361500357615002614f97565b5b600182019050919050565b600060608201905081810360008301526150288186613c84565b90506150376020830185613d74565b61504460408301846143e4565b949350505050565b7f50726f6475637420646f6573206e6f7420657869737400000000000000000000600082015250565b6000615082601683613c38565b915061508d8261504c565b602082019050919050565b600060208201905081810360008301526150b181615075565b9050919050565b7f4172746973616e206e6f7420666f756e64000000000000000000000000000000600082015250565b60006150ee601183613c38565b91506150f9826150b8565b602082019050919050565b6000602082019050818103600083015261511d816150e1565b9050919050565b60006151308285614b9c565b915061513c8284614b9c565b91508190509392505050565b600060408201905081810360008301526151628185613c84565b90506151716020830184613d74565b9392505050565b600081519050919050565b600082825260208201905092915050565b600061519f82615178565b6151a98185615183565b93506151b9818560208601613c49565b6151c281613c73565b840191505092915050565b60006080820190506151e26000830187613d74565b6151ef6020830186613d74565b6151fc60408301856143e4565b818103606083015261520e8184615194565b905095945050505050565b60008151905061522881613b9e565b92915050565b60006020828403121561524457615243613b68565b5b600061525284828501615219565b91505092915050565b60006040820190506152706000830185613d74565b61527d60208301846143e4565b9392505050565b7f4e487b7100000000000000000000000000000000000000000000000000000000600052601260045260246000fdfe50726f64756374207665726966696564206279206d61726b6574706c616365206f776e6572a2646970667358221220ceb4ce5d560c1badd7dd469cdd6091112d0eb42782dad24bc369a64748539ec864736f6c63430008140033",
  "linkReferences": {},
  "deployedLinkReferences": {}
}